{
  "_format": "hh3-artifact-1",
  "contractName": "MemeToken",
  "sourceName": "src/MemeToken.sol",
  "abi": [
    {
      "inputs": [
        {
          "internalType": "string",
          "name": "name",
          "type": "string"
        },
        {
          "internalType": "string",
          "name": "symbol",
          "type": "string"
        },
        {
          "internalType": "uint256",
          "name": "totalSupply",
          "type": "uint256"
        },
        {
          "internalType": "address",
          "name": "_launchpad",
          "type": "address"
        }
      ],
      "stateMutability": "nonpayable",
      "type": "constructor"
    },
    {
      "inputs": [
        {
          "internalType": "address",
          "name": "spender",
          "type": "address"
        },
        {
          "internalType": "uint256",
          "name": "allowance",
          "type": "uint256"
        },
        {
          "internalType": "uint256",
          "name": "needed",
          "type": "uint256"
        }
      ],
      "name": "ERC20InsufficientAllowance",
      "type": "error"
    },
    {
      "inputs": [
        {
          "internalType": "address",
          "name": "sender",
          "type": "address"
        },
        {
          "internalType": "uint256",
          "name": "balance",
          "type": "uint256"
        },
        {
          "internalType": "uint256",
          "name": "needed",
          "type": "uint256"
        }
      ],
      "name": "ERC20InsufficientBalance",
      "type": "error"
    },
    {
      "inputs": [
        {
          "internalType": "address",
          "name": "approver",
          "type": "address"
        }
      ],
      "name": "ERC20InvalidApprover",
      "type": "error"
    },
    {
      "inputs": [
        {
          "internalType": "address",
          "name": "receiver",
          "type": "address"
        }
      ],
      "name": "ERC20InvalidReceiver",
      "type": "error"
    },
    {
      "inputs": [
        {
          "internalType": "address",
          "name": "sender",
          "type": "address"
        }
      ],
      "name": "ERC20InvalidSender",
      "type": "error"
    },
    {
      "inputs": [
        {
          "internalType": "address",
          "name": "spender",
          "type": "address"
        }
      ],
      "name": "ERC20InvalidSpender",
      "type": "error"
    },
    {
      "anonymous": false,
      "inputs": [
        {
          "indexed": true,
          "internalType": "address",
          "name": "owner",
          "type": "address"
        },
        {
          "indexed": true,
          "internalType": "address",
          "name": "spender",
          "type": "address"
        },
        {
          "indexed": false,
          "internalType": "uint256",
          "name": "value",
          "type": "uint256"
        }
      ],
      "name": "Approval",
      "type": "event"
    },
    {
      "anonymous": false,
      "inputs": [
        {
          "indexed": true,
          "internalType": "address",
          "name": "from",
          "type": "address"
        },
        {
          "indexed": true,
          "internalType": "address",
          "name": "to",
          "type": "address"
        },
        {
          "indexed": false,
          "internalType": "uint256",
          "name": "value",
          "type": "uint256"
        }
      ],
      "name": "Transfer",
      "type": "event"
    },
    {
      "inputs": [
        {
          "internalType": "address",
          "name": "owner",
          "type": "address"
        },
        {
          "internalType": "address",
          "name": "spender",
          "type": "address"
        }
      ],
      "name": "allowance",
      "outputs": [
        {
          "internalType": "uint256",
          "name": "",
          "type": "uint256"
        }
      ],
      "stateMutability": "view",
      "type": "function"
    },
    {
      "inputs": [
        {
          "internalType": "address",
          "name": "spender",
          "type": "address"
        },
        {
          "internalType": "uint256",
          "name": "value",
          "type": "uint256"
        }
      ],
      "name": "approve",
      "outputs": [
        {
          "internalType": "bool",
          "name": "",
          "type": "bool"
        }
      ],
      "stateMutability": "nonpayable",
      "type": "function"
    },
    {
      "inputs": [
        {
          "internalType": "address",
          "name": "account",
          "type": "address"
        }
      ],
      "name": "balanceOf",
      "outputs": [
        {
          "internalType": "uint256",
          "name": "",
          "type": "uint256"
        }
      ],
      "stateMutability": "view",
      "type": "function"
    },
    {
      "inputs": [],
      "name": "decimals",
      "outputs": [
        {
          "internalType": "uint8",
          "name": "",
          "type": "uint8"
        }
      ],
      "stateMutability": "view",
      "type": "function"
    },
    {
      "inputs": [],
      "name": "launchpad",
      "outputs": [
        {
          "internalType": "address",
          "name": "",
          "type": "address"
        }
      ],
      "stateMutability": "view",
      "type": "function"
    },
    {
      "inputs": [],
      "name": "name",
      "outputs": [
        {
          "internalType": "string",
          "name": "",
          "type": "string"
        }
      ],
      "stateMutability": "view",
      "type": "function"
    },
    {
      "inputs": [],
      "name": "symbol",
      "outputs": [
        {
          "internalType": "string",
          "name": "",
          "type": "string"
        }
      ],
      "stateMutability": "view",
      "type": "function"
    },
    {
      "inputs": [],
      "name": "totalSupply",
      "outputs": [
        {
          "internalType": "uint256",
          "name": "",
          "type": "uint256"
        }
      ],
      "stateMutability": "view",
      "type": "function"
    },
    {
      "inputs": [
        {
          "internalType": "address",
          "name": "to",
          "type": "address"
        },
        {
          "internalType": "uint256",
          "name": "value",
          "type": "uint256"
        }
      ],
      "name": "transfer",
      "outputs": [
        {
          "internalType": "bool",
          "name": "",
          "type": "bool"
        }
      ],
      "stateMutability": "nonpayable",
      "type": "function"
    },
    {
      "inputs": [
        {
          "internalType": "address",
          "name": "from",
          "type": "address"
        },
        {
          "internalType": "address",
          "name": "to",
          "type": "address"
        },
        {
          "internalType": "uint256",
          "name": "value",
          "type": "uint256"
        }
      ],
      "name": "transferFrom",
      "outputs": [
        {
          "internalType": "bool",
          "name": "",
          "type": "bool"
        }
      ],
      "stateMutability": "nonpayable",
      "type": "function"
    }
  ],
  "bytecode": "0x608060405234801562000010575f80fd5b5060405162000bf538038062000bf58339810160408190526200003391620002b3565b83836003620000438382620003ce565b506004620000528282620003ce565b5050600580546001600160a01b0319166001600160a01b038416179055506200007c818362000086565b50505050620004bc565b6001600160a01b038216620000b55760405163ec442f0560e01b81525f60048201526024015b60405180910390fd5b620000c25f8383620000c6565b5050565b6001600160a01b038316620000f4578060025f828254620000e8919062000496565b90915550620001669050565b6001600160a01b0383165f9081526020819052604090205481811015620001485760405163391434e360e21b81526001600160a01b03851660048201526024810182905260448101839052606401620000ac565b6001600160a01b0384165f9081526020819052604090209082900390555b6001600160a01b0382166200018457600280548290039055620001a2565b6001600160a01b0382165f9081526020819052604090208054820190555b816001600160a01b0316836001600160a01b03167fddf252ad1be2c89b69c2b068fc378daa952ba7f163c4a11628f55a4df523b3ef83604051620001e891815260200190565b60405180910390a3505050565b634e487b7160e01b5f52604160045260245ffd5b5f82601f83011262000219575f80fd5b81516001600160401b0380821115620002365762000236620001f5565b604051601f8301601f19908116603f01168101908282118183101715620002615762000261620001f5565b816040528381526020925086838588010111156200027d575f80fd5b5f91505b83821015620002a0578582018301518183018401529082019062000281565b5f93810190920192909252949350505050565b5f805f8060808587031215620002c7575f80fd5b84516001600160401b0380821115620002de575f80fd5b620002ec8883890162000209565b9550602087015191508082111562000302575f80fd5b50620003118782880162000209565b60408701516060880151919550935090506001600160a01b038116811462000337575f80fd5b939692955090935050565b600181811c908216806200035757607f821691505b6020821081036200037657634e487b7160e01b5f52602260045260245ffd5b50919050565b601f821115620003c9575f81815260208120601f850160051c81016020861015620003a45750805b601f850160051c820191505b81811015620003c557828155600101620003b0565b5050505b505050565b81516001600160401b03811115620003ea57620003ea620001f5565b6200040281620003fb845462000342565b846200037c565b602080601f83116001811462000438575f8415620004205750858301515b5f19600386901b1c1916600185901b178555620003c5565b5f85815260208120601f198616915b82811015620004685788860151825594840194600190910190840162000447565b50858210156200048657878501515f19600388901b60f8161c191681555b5050505050600190811b01905550565b80820180821115620004b657634e487b7160e01b5f52601160045260245ffd5b92915050565b61072b80620004ca5f395ff3fe608060405234801561000f575f80fd5b506004361061009b575f3560e01c8063313ce56711610063578063313ce5671461012c57806370a082311461013b57806395d89b4114610163578063a9059cbb1461016b578063dd62ed3e1461017e575f80fd5b806302669b521461009f57806306fdde03146100cf578063095ea7b3146100e457806318160ddd1461010757806323b872dd14610119575b5f80fd5b6005546100b2906001600160a01b031681565b6040516001600160a01b0390911681526020015b60405180910390f35b6100d76101b6565b6040516100c69190610586565b6100f76100f23660046105ec565b610246565b60405190151581526020016100c6565b6002545b6040519081526020016100c6565b6100f7610127366004610614565b61025f565b604051601281526020016100c6565b61010b61014936600461064d565b6001600160a01b03165f9081526020819052604090205490565b6100d7610282565b6100f76101793660046105ec565b610291565b61010b61018c36600461066d565b6001600160a01b039182165f90815260016020908152604080832093909416825291909152205490565b6060600380546101c59061069e565b80601f01602080910402602001604051908101604052809291908181526020018280546101f19061069e565b801561023c5780601f106102135761010080835404028352916020019161023c565b820191905f5260205f20905b81548152906001019060200180831161021f57829003601f168201915b5050505050905090565b5f3361025381858561029e565b60019150505b92915050565b5f3361026c8582856102b0565b610277858585610331565b506001949350505050565b6060600480546101c59061069e565b5f33610253818585610331565b6102ab838383600161038e565b505050565b6001600160a01b038381165f908152600160209081526040808320938616835292905220545f1981101561032b578181101561031d57604051637dc7a0d960e11b81526001600160a01b038416600482015260248101829052604481018390526064015b60405180910390fd5b61032b84848484035f61038e565b50505050565b6001600160a01b03831661035a57604051634b637e8f60e11b81525f6004820152602401610314565b6001600160a01b0382166103835760405163ec442f0560e01b81525f6004820152602401610314565b6102ab838383610460565b6001600160a01b0384166103b75760405163e602df0560e01b81525f6004820152602401610314565b6001600160a01b0383166103e057604051634a1406b160e11b81525f6004820152602401610314565b6001600160a01b038085165f908152600160209081526040808320938716835292905220829055801561032b57826001600160a01b0316846001600160a01b03167f8c5be1e5ebec7d5bd14f71427d1e84f3dd0314c0f7b2291e5b200ac8c7c3b9258460405161045291815260200190565b60405180910390a350505050565b6001600160a01b03831661048a578060025f82825461047f91906106d6565b909155506104fa9050565b6001600160a01b0383165f90815260208190526040902054818110156104dc5760405163391434e360e21b81526001600160a01b03851660048201526024810182905260448101839052606401610314565b6001600160a01b0384165f9081526020819052604090209082900390555b6001600160a01b03821661051657600280548290039055610534565b6001600160a01b0382165f9081526020819052604090208054820190555b816001600160a01b0316836001600160a01b03167fddf252ad1be2c89b69c2b068fc378daa952ba7f163c4a11628f55a4df523b3ef8360405161057991815260200190565b60405180910390a3505050565b5f6020808352835180828501525f5b818110156105b157858101830151858201604001528201610595565b505f604082860101526040601f19601f8301168501019250505092915050565b80356001600160a01b03811681146105e7575f80fd5b919050565b5f80604083850312156105fd575f80fd5b610606836105d1565b946020939093013593505050565b5f805f60608486031215610626575f80fd5b61062f846105d1565b925061063d602085016105d1565b9150604084013590509250925092565b5f6020828403121561065d575f80fd5b610666826105d1565b9392505050565b5f806040838503121561067e575f80fd5b610687836105d1565b9150610695602084016105d1565b90509250929050565b600181811c908216806106b257607f821691505b6020821081036106d057634e487b7160e01b5f52602260045260245ffd5b50919050565b8082018082111561025957634e487b7160e01b5f52601160045260245ffdfea264697066735822122092248c73df06e3fe9650a2cb6999dc28b75a635c3d3928f3b78938600ac25e0b64736f6c63430008140033",
  "linkReferences": {},
  "deployedLinkReferences": {},
  "immutableReferences": {},
  "inputSourceName": "project/src/MemeToken.sol",
  "buildInfoId": "solc-0_8_20-d0ac6e4bf0bfdb96dda3d815570a41c8e2375477"
}