{"project/src/Launchpad.sol":{"Launchpad":{"abi":[{"inputs":[{"internalType":"address","name":"_uniswapRouter","type":"address"},{"internalType":"address","name":"_uniswapFactory","type":"address"}],"stateMutability":"nonpayable","type":"constructor"},{"inputs":[{"internalType":"address","name":"owner","type":"address"}],"name":"OwnableInvalidOwner","type":"error"},{"inputs":[{"internalType":"address","name":"account","type":"address"}],"name":"OwnableUnauthorizedAccount","type":"error"},{"anonymous":false,"inputs":[{"indexed":true,"internalType":"address","name":"token","type":"address"},{"indexed":false,"internalType":"address","name":"pair","type":"address"},{"indexed":false,"internalType":"uint256","name":"ethAmount","type":"uint256"},{"indexed":false,"internalType":"uint256","name":"tokenAmount","type":"uint256"}],"name":"Graduated","type":"event"},{"anonymous":false,"inputs":[{"indexed":true,"internalType":"address","name":"previousOwner","type":"address"},{"indexed":true,"internalType":"address","name":"newOwner","type":"address"}],"name":"OwnershipTransferred","type":"event"},{"anonymous":false,"inputs":[{"indexed":true,"internalType":"address","name":"tokenAddress","type":"address"},{"indexed":false,"internalType":"string","name":"name","type":"string"},{"indexed":false,"internalType":"string","name":"symbol","type":"string"},{"indexed":false,"internalType":"string","name":"uri","type":"string"}],"name":"TokenCreated","type":"event"},{"anonymous":false,"inputs":[{"indexed":true,"internalType":"address","name":"token","type":"address"},{"indexed":true,"internalType":"address","name":"user","type":"address"},{"indexed":false,"internalType":"uint256","name":"ethAmount","type":"uint256"},{"indexed":false,"internalType":"uint256","name":"tokenAmount","type":"uint256"},{"indexed":false,"internalType":"bool","name":"isBuy","type":"bool"}],"name":"Trade","type":"event"},{"inputs":[],"name":"FEE_DENOMINATOR","outputs":[{"internalType":"uint256","name":"","type":"uint256"}],"stateMutability":"view","type":"function"},{"inputs":[],"name":"GRADUATION_THRESHOLD","outputs":[{"internalType":"uint256","name":"","type":"uint256"}],"stateMutability":"view","type":"function"},{"inputs":[],"name":"INITIAL_VIRTUAL_ETH","outputs":[{"internalType":"uint256","name":"","type":"uint256"}],"stateMutability":"view","type":"function"},{"inputs":[],"name":"INITIAL_VIRTUAL_TOKEN","outputs":[{"internalType":"uint256","name":"","type":"uint256"}],"stateMutability":"view","type":"function"},{"inputs":[{"internalType":"uint256","name":"","type":"uint256"}],"name":"allTokens","outputs":[{"internalType":"address","name":"","type":"address"}],"stateMutability":"view","type":"function"},{"inputs":[{"internalType":"address","name":"token","type":"address"},{"internalType":"uint256","name":"minTokensOut","type":"uint256"}],"name":"buy","outputs":[],"stateMutability":"payable","type":"function"},{"inputs":[{"internalType":"string","name":"name","type":"string"},{"internalType":"string","name":"symbol","type":"string"},{"internalType":"string","name":"uri","type":"string"}],"name":"createToken","outputs":[{"internalType":"address","name":"","type":"address"}],"stateMutability":"nonpayable","type":"function"},{"inputs":[],"name":"feeRate","outputs":[{"internalType":"uint256","name":"","type":"uint256"}],"stateMutability":"view","type":"function"},{"inputs":[],"name":"owner","outputs":[{"internalType":"address","name":"","type":"address"}],"stateMutability":"view","type":"function"},{"inputs":[],"name":"renounceOwnership","outputs":[],"stateMutability":"nonpayable","type":"function"},{"inputs":[{"internalType":"address","name":"token","type":"address"},{"internalType":"uint256","name":"tokenAmount","type":"uint256"},{"internalType":"uint256","name":"minEthOut","type":"uint256"}],"name":"sell","outputs":[],"stateMutability":"nonpayable","type":"function"},{"inputs":[{"internalType":"uint256","name":"_rate","type":"uint256"}],"name":"setFeeRate","outputs":[],"stateMutability":"nonpayable","type":"function"},{"inputs":[{"internalType":"address","name":"","type":"address"}],"name":"tokenStates","outputs":[{"internalType":"address","name":"tokenAddress","type":"address"},{"internalType":"uint256","name":"virtualEthReserve","type":"uint256"},{"internalType":"uint256","name":"virtualTokenReserve","type":"uint256"},{"internalType":"uint256","name":"realEthReserve","type":"uint256"},{"internalType":"bool","name":"graduated","type":"bool"}],"stateMutability":"view","type":"function"},{"inputs":[{"internalType":"address","name":"newOwner","type":"address"}],"name":"transferOwnership","outputs":[],"stateMutability":"nonpayable","type":"function"},{"inputs":[],"name":"uniswapFactory","outputs":[{"internalType":"address","name":"","type":"address"}],"stateMutability":"view","type":"function"},{"inputs":[],"name":"uniswapRouter","outputs":[{"internalType":"address","name":"","type":"address"}],"stateMutability":"view","type":"function"},{"inputs":[],"name":"withdrawFees","outputs":[],"stateMutability":"nonpayable","type":"function"}],"evm":{"bytecode":{"linkReferences":{},"object":"6080604052606460015534801562000015575f80fd5b506040516200213738038062002137833981016040819052620000389162000107565b33806200005e57604051631e4fbdf760e01b81525f600482015260240160405180910390fd5b62000069816200009c565b50600280546001600160a01b039384166001600160a01b031991821617909155600380549290931691161790556200013d565b5f80546001600160a01b038381166001600160a01b0319831681178455604051919092169283917f8be0079c531659141344cd1fd0a4f28419497f9722a3daafe3b4186f6b6457e09190a35050565b80516001600160a01b038116811462000102575f80fd5b919050565b5f806040838503121562000119575f80fd5b6200012483620000eb565b91506200013460208401620000eb565b90509250929050565b611fec806200014b5f395ff3fe6080604052600436106200010f575f3560e01c80638bdb2afa116200009e578063cce7ec13116200006a578063cce7ec131462000322578063d73792a91462000339578063e829ff621462000350578063f2fde38b1462000371578063fcfc0c091462000395575f80fd5b80638bdb2afa14620002a85780638da5cb5b14620002c957806394aed7d014620002e7578063978bbdb9146200030b575f80fd5b80636a27246211620000de5780636a27246214620001bd578063715018a614620001e1578063735de9f714620001f857806389cb096a1462000219575f80fd5b806345596e2e146200011357806345b18f251462000139578063476343ee1462000169578063634282af1462000180575b5f80fd5b3480156200011f575f80fd5b50620001376200013136600462000ff0565b620003b3565b005b34801562000145575f80fd5b5062000156670de0b6b3a764000081565b6040519081526020015b60405180910390f35b34801562000175575f80fd5b506200013762000407565b3480156200018c575f80fd5b50620001a46200019e36600462000ff0565b62000512565b6040516001600160a01b03909116815260200162000160565b348015620001c9575f80fd5b5062000137620001db36600462001024565b6200053b565b348015620001ed575f80fd5b5062000137620008dd565b34801562000204575f80fd5b50600254620001a4906001600160a01b031681565b34801562000225575f80fd5b50620002736200023736600462001057565b600460208190525f9182526040909120805460018201546002830154600384015493909401546001600160a01b03909216939092909160ff1685565b604080516001600160a01b03909616865260208601949094529284019190915260608301521515608082015260a00162000160565b348015620002b4575f80fd5b50600354620001a4906001600160a01b031681565b348015620002d5575f80fd5b505f546001600160a01b0316620001a4565b348015620002f3575f80fd5b50620001a4620003053660046200111f565b620008f4565b34801562000317575f80fd5b506200015660015481565b6200013762000333366004620011ab565b62000a5b565b34801562000345575f80fd5b506200015661271081565b3480156200035c575f80fd5b50620001566b033b2e3c9fd0803ce800000081565b3480156200037d575f80fd5b50620001376200038f36600462001057565b62000d2e565b348015620003a1575f80fd5b506200015668014d1120d7b160000081565b620003bd62000d71565b6101f4811115620004025760405162461bcd60e51b815260206004820152600a6024820152694d61782066656520352560b01b60448201526064015b60405180910390fd5b600155565b6200041162000d71565b475f5b600554811015620004825760045f60058381548110620004385762000438620011d6565b5f9182526020808320909101546001600160a01b031683528201929092526040019020600301546200046b9083620011fe565b91508062000479816200121a565b91505062000414565b506040515f90339083908381818185875af1925050503d805f8114620004c4576040519150601f19603f3d011682016040523d82523d5f602084013e620004c9565b606091505b50509050806200050e5760405162461bcd60e51b815260206004820152600f60248201526e15da5d1a191c985dc819985a5b1959608a1b6044820152606401620003f9565b5050565b6005818154811062000522575f80fd5b5f918252602090912001546001600160a01b0316905081565b6001600160a01b038084165f9081526004602052604090208054909116620005985760405162461bcd60e51b815260206004820152600f60248201526e151bdad95b881b9bdd08199bdd5b99608a1b6044820152606401620003f9565b600481015460ff1615620005e35760405162461bcd60e51b8152602060048201526011602482015270105b1c9958591e4819dc98591d585d1959607a1b6044820152606401620003f9565b5f8311620006275760405162461bcd60e51b815260206004820152601060248201526f4d7573742073656c6c20746f6b656e7360801b6044820152606401620003f9565b6040516323b872dd60e01b8152336004820152306024820152604481018490526001600160a01b038516906323b872dd906064016020604051808303815f875af115801562000678573d5f803e3d5ffd5b505050506040513d601f19601f820116820180604052508101906200069e919062001235565b505f81600201548260010154620006b6919062001256565b90505f848360020154620006cb919062001270565b90505f620006da828462001286565b90505f818560010154620006ef9190620011fe565b90505f6127106001548362000705919062001256565b62000711919062001286565b90505f620007208284620011fe565b905087811015620007745760405162461bcd60e51b815260206004820152601b60248201527f536c69707061676520746f6c6572616e636520657863656564656400000000006044820152606401620003f9565b8287600301541015620007ca5760405162461bcd60e51b815260206004820152601f60248201527f496e73756666696369656e74207265616c20455448206c6971756964697479006044820152606401620003f9565b60018701849055600287018590556003870180548491905f90620007f0908490620011fe565b90915550506040515f90339083908381818185875af1925050503d805f811462000836576040519150601f19603f3d011682016040523d82523d5f602084013e6200083b565b606091505b5050905080620008845760405162461bcd60e51b8152602060048201526013602482015272115512081d1c985b9cd9995c8819985a5b1959606a1b6044820152606401620003f9565b60408051838152602081018c90525f81830152905133916001600160a01b038e16917f84d137fc8cf4dd48db72f6856694d133b26c0cfd241162521c3af00260e061ae9181900360600190a35050505050505050505050565b620008e762000d71565b620008f25f62000d9f565b565b5f8084846b033b2e3c9fd0803ce800000030604051620009149062000fe2565b620009239493929190620012eb565b604051809103905ff0801580156200093d573d5f803e3d5ffd5b506040805160a0810182526001600160a01b03808416808352670de0b6b3a764000060208085019182526b033b2e3c9fd0803ce80000008587019081525f60608701818152608088018281528683526004948590528983209851895498166001600160a01b0319988916178955945160018981019190915592516002890155516003880155925195909101805495151560ff199096169590951790945560058054948501815590527f036b6384b5eca791c62761152d0c79bb0604c104a5fb6f4eb0703f3154bb3db09092018054909116821790559051919250907f10d72033834a2a8a099dfa90492346be3414c081b6e5155dbbc2093cfb0dbf099062000a4b9088908890889062001335565b60405180910390a2949350505050565b6001600160a01b038083165f908152600460205260409020805490911662000ab85760405162461bcd60e51b815260206004820152600f60248201526e151bdad95b881b9bdd08199bdd5b99608a1b6044820152606401620003f9565b600481015460ff161562000b035760405162461bcd60e51b8152602060048201526011602482015270105b1c9958591e4819dc98591d585d1959607a1b6044820152606401620003f9565b5f341162000b445760405162461bcd60e51b815260206004820152600d60248201526c09aeae6e840e6cadcc8408aa89609b1b6044820152606401620003f9565b5f6127106001543462000b58919062001256565b62000b64919062001286565b90505f62000b738234620011fe565b90505f8360020154846001015462000b8c919062001256565b90505f82856001015462000ba1919062001270565b90505f62000bb0828462001286565b90505f81876002015462000bc59190620011fe565b90508781101562000c195760405162461bcd60e51b815260206004820152601b60248201527f536c69707061676520746f6c6572616e636520657863656564656400000000006044820152606401620003f9565b60018701839055600287018290556003870180548691905f9062000c3f90849062001270565b909155505060405163a9059cbb60e01b8152336004820152602481018290526001600160a01b038a169063a9059cbb906044016020604051808303815f875af115801562000c8f573d5f803e3d5ffd5b505050506040513d601f19601f8201168201806040525081019062000cb5919062001235565b506040805134815260208101839052600181830152905133916001600160a01b038c16917f84d137fc8cf4dd48db72f6856694d133b26c0cfd241162521c3af00260e061ae9181900360600190a368014d1120d7b160000087600301541062000d235762000d238962000dee565b505050505050505050565b62000d3862000d71565b6001600160a01b03811662000d6357604051631e4fbdf760e01b81525f6004820152602401620003f9565b62000d6e8162000d9f565b50565b5f546001600160a01b03163314620008f25760405163118cdaa760e01b8152336004820152602401620003f9565b5f80546001600160a01b038381166001600160a01b0319831681178455604051919092169283917f8be0079c531659141344cd1fd0a4f28419497f9722a3daafe3b4186f6b6457e09190a35050565b6001600160a01b0381165f818152600460208190526040808320808301805460ff19166001179055600381015491516370a0823160e01b81523093810193909352939092916370a0823190602401602060405180830381865afa15801562000e58573d5f803e3d5ffd5b505050506040513d601f19601f8201168201806040525081019062000e7e91906200137d565b60025460405163095ea7b360e01b81526001600160a01b0391821660048201526024810183905291925085169063095ea7b3906044016020604051808303815f875af115801562000ed1573d5f803e3d5ffd5b505050506040513d601f19601f8201168201806040525081019062000ef7919062001235565b5060025460405163f305d71960e01b81526001600160a01b038681166004830152602482018490525f60448301819052606483015261dead60848301524260a48301529091169063f305d71990849060c40160606040518083038185885af115801562000f66573d5f803e3d5ffd5b50505050506040513d601f19601f8201168201806040525081019062000f8d919062001395565b5050604080515f8152602081018590529081018390526001600160a01b03861691507f18a56450d3c666e2bae9e0829fcada82a9ab0deef6e33c2496752c88d4155c9d9060600160405180910390a250505050565b610bf580620013c283390190565b5f6020828403121562001001575f80fd5b5035919050565b80356001600160a01b03811681146200101f575f80fd5b919050565b5f805f6060848603121562001037575f80fd5b620010428462001008565b95602085013595506040909401359392505050565b5f6020828403121562001068575f80fd5b620010738262001008565b9392505050565b634e487b7160e01b5f52604160045260245ffd5b5f82601f8301126200109e575f80fd5b813567ffffffffffffffff80821115620010bc57620010bc6200107a565b604051601f8301601f19908116603f01168101908282118183101715620010e757620010e76200107a565b8160405283815286602085880101111562001100575f80fd5b836020870160208301375f602085830101528094505050505092915050565b5f805f6060848603121562001132575f80fd5b833567ffffffffffffffff808211156200114a575f80fd5b62001158878388016200108e565b945060208601359150808211156200116e575f80fd5b6200117c878388016200108e565b9350604086013591508082111562001192575f80fd5b50620011a1868287016200108e565b9150509250925092565b5f8060408385031215620011bd575f80fd5b620011c88362001008565b946020939093013593505050565b634e487b7160e01b5f52603260045260245ffd5b634e487b7160e01b5f52601160045260245ffd5b81810381811115620012145762001214620011ea565b92915050565b5f600182016200122e576200122e620011ea565b5060010190565b5f6020828403121562001246575f80fd5b8151801515811462001073575f80fd5b8082028115828204841417620012145762001214620011ea565b80820180821115620012145762001214620011ea565b5f82620012a157634e487b7160e01b5f52601260045260245ffd5b500490565b5f81518084525f5b81811015620012cc57602081850181015186830182015201620012ae565b505f602082860101526020601f19601f83011685010191505092915050565b608081525f620012ff6080830187620012a6565b8281036020840152620013138187620012a6565b604084019590955250506001600160a01b039190911660609091015292915050565b606081525f620013496060830186620012a6565b82810360208401526200135d8186620012a6565b90508281036040840152620013738185620012a6565b9695505050505050565b5f602082840312156200138e575f80fd5b5051919050565b5f805f60608486031215620013a8575f80fd5b835192506020840151915060408401519050925092509256fe608060405234801562000010575f80fd5b5060405162000bf538038062000bf58339810160408190526200003391620002b3565b83836003620000438382620003ce565b506004620000528282620003ce565b5050600580546001600160a01b0319166001600160a01b038416179055506200007c818362000086565b50505050620004bc565b6001600160a01b038216620000b55760405163ec442f0560e01b81525f60048201526024015b60405180910390fd5b620000c25f8383620000c6565b5050565b6001600160a01b038316620000f4578060025f828254620000e8919062000496565b90915550620001669050565b6001600160a01b0383165f9081526020819052604090205481811015620001485760405163391434e360e21b81526001600160a01b03851660048201526024810182905260448101839052606401620000ac565b6001600160a01b0384165f9081526020819052604090209082900390555b6001600160a01b0382166200018457600280548290039055620001a2565b6001600160a01b0382165f9081526020819052604090208054820190555b816001600160a01b0316836001600160a01b03167fddf252ad1be2c89b69c2b068fc378daa952ba7f163c4a11628f55a4df523b3ef83604051620001e891815260200190565b60405180910390a3505050565b634e487b7160e01b5f52604160045260245ffd5b5f82601f83011262000219575f80fd5b81516001600160401b0380821115620002365762000236620001f5565b604051601f8301601f19908116603f01168101908282118183101715620002615762000261620001f5565b816040528381526020925086838588010111156200027d575f80fd5b5f91505b83821015620002a0578582018301518183018401529082019062000281565b5f93810190920192909252949350505050565b5f805f8060808587031215620002c7575f80fd5b84516001600160401b0380821115620002de575f80fd5b620002ec8883890162000209565b9550602087015191508082111562000302575f80fd5b50620003118782880162000209565b60408701516060880151919550935090506001600160a01b038116811462000337575f80fd5b939692955090935050565b600181811c908216806200035757607f821691505b6020821081036200037657634e487b7160e01b5f52602260045260245ffd5b50919050565b601f821115620003c9575f81815260208120601f850160051c81016020861015620003a45750805b601f850160051c820191505b81811015620003c557828155600101620003b0565b5050505b505050565b81516001600160401b03811115620003ea57620003ea620001f5565b6200040281620003fb845462000342565b846200037c565b602080601f83116001811462000438575f8415620004205750858301515b5f19600386901b1c1916600185901b178555620003c5565b5f85815260208120601f198616915b82811015620004685788860151825594840194600190910190840162000447565b50858210156200048657878501515f19600388901b60f8161c191681555b5050505050600190811b01905550565b80820180821115620004b657634e487b7160e01b5f52601160045260245ffd5b92915050565b61072b80620004ca5f395ff3fe608060405234801561000f575f80fd5b506004361061009b575f3560e01c8063313ce56711610063578063313ce5671461012c57806370a082311461013b57806395d89b4114610163578063a9059cbb1461016b578063dd62ed3e1461017e575f80fd5b806302669b521461009f57806306fdde03146100cf578063095ea7b3146100e457806318160ddd1461010757806323b872dd14610119575b5f80fd5b6005546100b2906001600160a01b031681565b6040516001600160a01b0390911681526020015b60405180910390f35b6100d76101b6565b6040516100c69190610586565b6100f76100f23660046105ec565b610246565b60405190151581526020016100c6565b6002545b6040519081526020016100c6565b6100f7610127366004610614565b61025f565b604051601281526020016100c6565b61010b61014936600461064d565b6001600160a01b03165f9081526020819052604090205490565b6100d7610282565b6100f76101793660046105ec565b610291565b61010b61018c36600461066d565b6001600160a01b039182165f90815260016020908152604080832093909416825291909152205490565b6060600380546101c59061069e565b80601f01602080910402602001604051908101604052809291908181526020018280546101f19061069e565b801561023c5780601f106102135761010080835404028352916020019161023c565b820191905f5260205f20905b81548152906001019060200180831161021f57829003601f168201915b5050505050905090565b5f3361025381858561029e565b60019150505b92915050565b5f3361026c8582856102b0565b610277858585610331565b506001949350505050565b6060600480546101c59061069e565b5f33610253818585610331565b6102ab838383600161038e565b505050565b6001600160a01b038381165f908152600160209081526040808320938616835292905220545f1981101561032b578181101561031d57604051637dc7a0d960e11b81526001600160a01b038416600482015260248101829052604481018390526064015b60405180910390fd5b61032b84848484035f61038e565b50505050565b6001600160a01b03831661035a57604051634b637e8f60e11b81525f6004820152602401610314565b6001600160a01b0382166103835760405163ec442f0560e01b81525f6004820152602401610314565b6102ab838383610460565b6001600160a01b0384166103b75760405163e602df0560e01b81525f6004820152602401610314565b6001600160a01b0383166103e057604051634a1406b160e11b81525f6004820152602401610314565b6001600160a01b038085165f908152600160209081526040808320938716835292905220829055801561032b57826001600160a01b0316846001600160a01b03167f8c5be1e5ebec7d5bd14f71427d1e84f3dd0314c0f7b2291e5b200ac8c7c3b9258460405161045291815260200190565b60405180910390a350505050565b6001600160a01b03831661048a578060025f82825461047f91906106d6565b909155506104fa9050565b6001600160a01b0383165f90815260208190526040902054818110156104dc5760405163391434e360e21b81526001600160a01b03851660048201526024810182905260448101839052606401610314565b6001600160a01b0384165f9081526020819052604090209082900390555b6001600160a01b03821661051657600280548290039055610534565b6001600160a01b0382165f9081526020819052604090208054820190555b816001600160a01b0316836001600160a01b03167fddf252ad1be2c89b69c2b068fc378daa952ba7f163c4a11628f55a4df523b3ef8360405161057991815260200190565b60405180910390a3505050565b5f6020808352835180828501525f5b818110156105b157858101830151858201604001528201610595565b505f604082860101526040601f19601f8301168501019250505092915050565b80356001600160a01b03811681146105e7575f80fd5b919050565b5f80604083850312156105fd575f80fd5b610606836105d1565b946020939093013593505050565b5f805f60608486031215610626575f80fd5b61062f846105d1565b925061063d602085016105d1565b9150604084013590509250925092565b5f6020828403121561065d575f80fd5b610666826105d1565b9392505050565b5f806040838503121561067e575f80fd5b610687836105d1565b9150610695602084016105d1565b90509250929050565b600181811c908216806106b257607f821691505b6020821081036106d057634e487b7160e01b5f52602260045260245ffd5b50919050565b8082018082111561025957634e487b7160e01b5f52601160045260245ffdfea264697066735822122092248c73df06e3fe9650a2cb6999dc28b75a635c3d3928f3b78938600ac25e0b64736f6c63430008140033a2646970667358221220b4f53ef154a698b305037b6959db6ad0a5a9247e60d0864efca8bb74ccc5122564736f6c63430008140033","opcodes":"PUSH1 0x80 PUSH1 0x40 MSTORE PUSH1 0x64 PUSH1 0x1 SSTORE CALLVALUE DUP1 ISZERO PUSH3 0x15 JUMPI PUSH0 DUP1 REVERT JUMPDEST POP PUSH1 0x40 MLOAD PUSH3 0x2137 CODESIZE SUB DUP1 PUSH3 0x2137 DUP4 CODECOPY DUP2 ADD PUSH1 0x40 DUP2 SWAP1 MSTORE PUSH3 0x38 SWAP2 PUSH3 0x107 JUMP JUMPDEST CALLER DUP1 PUSH3 0x5E JUMPI PUSH1 0x40 MLOAD PUSH4 0x1E4FBDF7 PUSH1 0xE0 SHL DUP2 MSTORE PUSH0 PUSH1 0x4 DUP3 ADD MSTORE PUSH1 0x24 ADD PUSH1 0x40 MLOAD DUP1 SWAP2 SUB SWAP1 REVERT JUMPDEST PUSH3 0x69 DUP2 PUSH3 0x9C JUMP JUMPDEST POP PUSH1 0x2 DUP1 SLOAD PUSH1 0x1 PUSH1 0x1 PUSH1 0xA0 SHL SUB SWAP4 DUP5 AND PUSH1 0x1 PUSH1 0x1 PUSH1 0xA0 SHL SUB NOT SWAP2 DUP3 AND OR SWAP1 SWAP2 SSTORE PUSH1 0x3 DUP1 SLOAD SWAP3 SWAP1 SWAP4 AND SWAP2 AND OR SWAP1 SSTORE PUSH3 0x13D JUMP JUMPDEST PUSH0 DUP1 SLOAD PUSH1 0x1 PUSH1 0x1 PUSH1 0xA0 SHL SUB DUP4 DUP2 AND PUSH1 0x1 PUSH1 0x1 PUSH1 0xA0 SHL SUB NOT DUP4 AND DUP2 OR DUP5 SSTORE PUSH1 0x40 MLOAD SWAP2 SWAP1 SWAP3 AND SWAP3 DUP4 SWAP2 PUSH32 0x8BE0079C531659141344CD1FD0A4F28419497F9722A3DAAFE3B4186F6B6457E0 SWAP2 SWAP1 LOG3 POP POP JUMP JUMPDEST DUP1 MLOAD PUSH1 0x1 PUSH1 0x1 PUSH1 0xA0 SHL SUB DUP2 AND DUP2 EQ PUSH3 0x102 JUMPI PUSH0 DUP1 REVERT JUMPDEST SWAP2 SWAP1 POP JUMP JUMPDEST PUSH0 DUP1 PUSH1 0x40 DUP4 DUP6 SUB SLT ISZERO PUSH3 0x119 JUMPI PUSH0 DUP1 REVERT JUMPDEST PUSH3 0x124 DUP4 PUSH3 0xEB JUMP JUMPDEST SWAP2 POP PUSH3 0x134 PUSH1 0x20 DUP5 ADD PUSH3 0xEB JUMP JUMPDEST SWAP1 POP SWAP3 POP SWAP3 SWAP1 POP JUMP JUMPDEST PUSH2 0x1FEC DUP1 PUSH3 0x14B PUSH0 CODECOPY PUSH0 RETURN INVALID PUSH1 0x80 PUSH1 0x40 MSTORE PUSH1 0x4 CALLDATASIZE LT PUSH3 0x10F JUMPI PUSH0 CALLDATALOAD PUSH1 0xE0 SHR DUP1 PUSH4 0x8BDB2AFA GT PUSH3 0x9E JUMPI DUP1 PUSH4 0xCCE7EC13 GT PUSH3 0x6A JUMPI DUP1 PUSH4 0xCCE7EC13 EQ PUSH3 0x322 JUMPI DUP1 PUSH4 0xD73792A9 EQ PUSH3 0x339 JUMPI DUP1 PUSH4 0xE829FF62 EQ PUSH3 0x350 JUMPI DUP1 PUSH4 0xF2FDE38B EQ PUSH3 0x371 JUMPI DUP1 PUSH4 0xFCFC0C09 EQ PUSH3 0x395 JUMPI PUSH0 DUP1 REVERT JUMPDEST DUP1 PUSH4 0x8BDB2AFA EQ PUSH3 0x2A8 JUMPI DUP1 PUSH4 0x8DA5CB5B EQ PUSH3 0x2C9 JUMPI DUP1 PUSH4 0x94AED7D0 EQ PUSH3 0x2E7 JUMPI DUP1 PUSH4 0x978BBDB9 EQ PUSH3 0x30B JUMPI PUSH0 DUP1 REVERT JUMPDEST DUP1 PUSH4 0x6A272462 GT PUSH3 0xDE JUMPI DUP1 PUSH4 0x6A272462 EQ PUSH3 0x1BD JUMPI DUP1 PUSH4 0x715018A6 EQ PUSH3 0x1E1 JUMPI DUP1 PUSH4 0x735DE9F7 EQ PUSH3 0x1F8 JUMPI DUP1 PUSH4 0x89CB096A EQ PUSH3 0x219 JUMPI PUSH0 DUP1 REVERT JUMPDEST DUP1 PUSH4 0x45596E2E EQ PUSH3 0x113 JUMPI DUP1 PUSH4 0x45B18F25 EQ PUSH3 0x139 JUMPI DUP1 PUSH4 0x476343EE EQ PUSH3 0x169 JUMPI DUP1 PUSH4 0x634282AF EQ PUSH3 0x180 JUMPI JUMPDEST PUSH0 DUP1 REVERT JUMPDEST CALLVALUE DUP1 ISZERO PUSH3 0x11F JUMPI PUSH0 DUP1 REVERT JUMPDEST POP PUSH3 0x137 PUSH3 0x131 CALLDATASIZE PUSH1 0x4 PUSH3 0xFF0 JUMP JUMPDEST PUSH3 0x3B3 JUMP JUMPDEST STOP JUMPDEST CALLVALUE DUP1 ISZERO PUSH3 0x145 JUMPI PUSH0 DUP1 REVERT JUMPDEST POP PUSH3 0x156 PUSH8 0xDE0B6B3A7640000 DUP2 JUMP JUMPDEST PUSH1 0x40 MLOAD SWAP1 DUP2 MSTORE PUSH1 0x20 ADD JUMPDEST PUSH1 0x40 MLOAD DUP1 SWAP2 SUB SWAP1 RETURN JUMPDEST CALLVALUE DUP1 ISZERO PUSH3 0x175 JUMPI PUSH0 DUP1 REVERT JUMPDEST POP PUSH3 0x137 PUSH3 0x407 JUMP JUMPDEST CALLVALUE DUP1 ISZERO PUSH3 0x18C JUMPI PUSH0 DUP1 REVERT JUMPDEST POP PUSH3 0x1A4 PUSH3 0x19E CALLDATASIZE PUSH1 0x4 PUSH3 0xFF0 JUMP JUMPDEST PUSH3 0x512 JUMP JUMPDEST PUSH1 0x40 MLOAD PUSH1 0x1 PUSH1 0x1 PUSH1 0xA0 SHL SUB SWAP1 SWAP2 AND DUP2 MSTORE PUSH1 0x20 ADD PUSH3 0x160 JUMP JUMPDEST CALLVALUE DUP1 ISZERO PUSH3 0x1C9 JUMPI PUSH0 DUP1 REVERT JUMPDEST POP PUSH3 0x137 PUSH3 0x1DB CALLDATASIZE PUSH1 0x4 PUSH3 0x1024 JUMP JUMPDEST PUSH3 0x53B JUMP JUMPDEST CALLVALUE DUP1 ISZERO PUSH3 0x1ED JUMPI PUSH0 DUP1 REVERT JUMPDEST POP PUSH3 0x137 PUSH3 0x8DD JUMP JUMPDEST CALLVALUE DUP1 ISZERO PUSH3 0x204 JUMPI PUSH0 DUP1 REVERT JUMPDEST POP PUSH1 0x2 SLOAD PUSH3 0x1A4 SWAP1 PUSH1 0x1 PUSH1 0x1 PUSH1 0xA0 SHL SUB AND DUP2 JUMP JUMPDEST CALLVALUE DUP1 ISZERO PUSH3 0x225 JUMPI PUSH0 DUP1 REVERT JUMPDEST POP PUSH3 0x273 PUSH3 0x237 CALLDATASIZE PUSH1 0x4 PUSH3 0x1057 JUMP JUMPDEST PUSH1 0x4 PUSH1 0x20 DUP2 SWAP1 MSTORE PUSH0 SWAP2 DUP3 MSTORE PUSH1 0x40 SWAP1 SWAP2 KECCAK256 DUP1 SLOAD PUSH1 0x1 DUP3 ADD SLOAD PUSH1 0x2 DUP4 ADD SLOAD PUSH1 0x3 DUP5 ADD SLOAD SWAP4 SWAP1 SWAP5 ADD SLOAD PUSH1 0x1 PUSH1 0x1 PUSH1 0xA0 SHL SUB SWAP1 SWAP3 AND SWAP4 SWAP1 SWAP3 SWAP1 SWAP2 PUSH1 0xFF AND DUP6 JUMP JUMPDEST PUSH1 0x40 DUP1 MLOAD PUSH1 0x1 PUSH1 0x1 PUSH1 0xA0 SHL SUB SWAP1 SWAP7 AND DUP7 MSTORE PUSH1 0x20 DUP7 ADD SWAP5 SWAP1 SWAP5 MSTORE SWAP3 DUP5 ADD SWAP2 SWAP1 SWAP2 MSTORE PUSH1 0x60 DUP4 ADD MSTORE ISZERO ISZERO PUSH1 0x80 DUP3 ADD MSTORE PUSH1 0xA0 ADD PUSH3 0x160 JUMP JUMPDEST CALLVALUE DUP1 ISZERO PUSH3 0x2B4 JUMPI PUSH0 DUP1 REVERT JUMPDEST POP PUSH1 0x3 SLOAD PUSH3 0x1A4 SWAP1 PUSH1 0x1 PUSH1 0x1 PUSH1 0xA0 SHL SUB AND DUP2 JUMP JUMPDEST CALLVALUE DUP1 ISZERO PUSH3 0x2D5 JUMPI PUSH0 DUP1 REVERT JUMPDEST POP PUSH0 SLOAD PUSH1 0x1 PUSH1 0x1 PUSH1 0xA0 SHL SUB AND PUSH3 0x1A4 JUMP JUMPDEST CALLVALUE DUP1 ISZERO PUSH3 0x2F3 JUMPI PUSH0 DUP1 REVERT JUMPDEST POP PUSH3 0x1A4 PUSH3 0x305 CALLDATASIZE PUSH1 0x4 PUSH3 0x111F JUMP JUMPDEST PUSH3 0x8F4 JUMP JUMPDEST CALLVALUE DUP1 ISZERO PUSH3 0x317 JUMPI PUSH0 DUP1 REVERT JUMPDEST POP PUSH3 0x156 PUSH1 0x1 SLOAD DUP2 JUMP JUMPDEST PUSH3 0x137 PUSH3 0x333 CALLDATASIZE PUSH1 0x4 PUSH3 0x11AB JUMP JUMPDEST PUSH3 0xA5B JUMP JUMPDEST CALLVALUE DUP1 ISZERO PUSH3 0x345 JUMPI PUSH0 DUP1 REVERT JUMPDEST POP PUSH3 0x156 PUSH2 0x2710 DUP2 JUMP JUMPDEST CALLVALUE DUP1 ISZERO PUSH3 0x35C JUMPI PUSH0 DUP1 REVERT JUMPDEST POP PUSH3 0x156 PUSH12 0x33B2E3C9FD0803CE8000000 DUP2 JUMP JUMPDEST CALLVALUE DUP1 ISZERO PUSH3 0x37D JUMPI PUSH0 DUP1 REVERT JUMPDEST POP PUSH3 0x137 PUSH3 0x38F CALLDATASIZE PUSH1 0x4 PUSH3 0x1057 JUMP JUMPDEST PUSH3 0xD2E JUMP JUMPDEST CALLVALUE DUP1 ISZERO PUSH3 0x3A1 JUMPI PUSH0 DUP1 REVERT JUMPDEST POP PUSH3 0x156 PUSH9 0x14D1120D7B1600000 DUP2 JUMP JUMPDEST PUSH3 0x3BD PUSH3 0xD71 JUMP JUMPDEST PUSH2 0x1F4 DUP2 GT ISZERO PUSH3 0x402 JUMPI PUSH1 0x40 MLOAD PUSH3 0x461BCD PUSH1 0xE5 SHL DUP2 MSTORE PUSH1 0x20 PUSH1 0x4 DUP3 ADD MSTORE PUSH1 0xA PUSH1 0x24 DUP3 ADD MSTORE PUSH10 0x4D617820666565203525 PUSH1 0xB0 SHL PUSH1 0x44 DUP3 ADD MSTORE PUSH1 0x64 ADD JUMPDEST PUSH1 0x40 MLOAD DUP1 SWAP2 SUB SWAP1 REVERT JUMPDEST PUSH1 0x1 SSTORE JUMP JUMPDEST PUSH3 0x411 PUSH3 0xD71 JUMP JUMPDEST SELFBALANCE PUSH0 JUMPDEST PUSH1 0x5 SLOAD DUP2 LT ISZERO PUSH3 0x482 JUMPI PUSH1 0x4 PUSH0 PUSH1 0x5 DUP4 DUP2 SLOAD DUP2 LT PUSH3 0x438 JUMPI PUSH3 0x438 PUSH3 0x11D6 JUMP JUMPDEST PUSH0 SWAP2 DUP3 MSTORE PUSH1 0x20 DUP1 DUP4 KECCAK256 SWAP1 SWAP2 ADD SLOAD PUSH1 0x1 PUSH1 0x1 PUSH1 0xA0 SHL SUB AND DUP4 MSTORE DUP3 ADD SWAP3 SWAP1 SWAP3 MSTORE PUSH1 0x40 ADD SWAP1 KECCAK256 PUSH1 0x3 ADD SLOAD PUSH3 0x46B SWAP1 DUP4 PUSH3 0x11FE JUMP JUMPDEST SWAP2 POP DUP1 PUSH3 0x479 DUP2 PUSH3 0x121A JUMP JUMPDEST SWAP2 POP POP PUSH3 0x414 JUMP JUMPDEST POP PUSH1 0x40 MLOAD PUSH0 SWAP1 CALLER SWAP1 DUP4 SWAP1 DUP4 DUP2 DUP2 DUP2 DUP6 DUP8 GAS CALL SWAP3 POP POP POP RETURNDATASIZE DUP1 PUSH0 DUP2 EQ PUSH3 0x4C4 JUMPI PUSH1 0x40 MLOAD SWAP2 POP PUSH1 0x1F NOT PUSH1 0x3F RETURNDATASIZE ADD AND DUP3 ADD PUSH1 0x40 MSTORE RETURNDATASIZE DUP3 MSTORE RETURNDATASIZE PUSH0 PUSH1 0x20 DUP5 ADD RETURNDATACOPY PUSH3 0x4C9 JUMP JUMPDEST PUSH1 0x60 SWAP2 POP JUMPDEST POP POP SWAP1 POP DUP1 PUSH3 0x50E JUMPI PUSH1 0x40 MLOAD PUSH3 0x461BCD PUSH1 0xE5 SHL DUP2 MSTORE PUSH1 0x20 PUSH1 0x4 DUP3 ADD MSTORE PUSH1 0xF PUSH1 0x24 DUP3 ADD MSTORE PUSH15 0x15DA5D1A191C985DC819985A5B1959 PUSH1 0x8A SHL PUSH1 0x44 DUP3 ADD MSTORE PUSH1 0x64 ADD PUSH3 0x3F9 JUMP JUMPDEST POP POP JUMP JUMPDEST PUSH1 0x5 DUP2 DUP2 SLOAD DUP2 LT PUSH3 0x522 JUMPI PUSH0 DUP1 REVERT JUMPDEST PUSH0 SWAP2 DUP3 MSTORE PUSH1 0x20 SWAP1 SWAP2 KECCAK256 ADD SLOAD PUSH1 0x1 PUSH1 0x1 PUSH1 0xA0 SHL SUB AND SWAP1 POP DUP2 JUMP JUMPDEST PUSH1 0x1 PUSH1 0x1 PUSH1 0xA0 SHL SUB DUP1 DUP5 AND PUSH0 SWAP1 DUP2 MSTORE PUSH1 0x4 PUSH1 0x20 MSTORE PUSH1 0x40 SWAP1 KECCAK256 DUP1 SLOAD SWAP1 SWAP2 AND PUSH3 0x598 JUMPI PUSH1 0x40 MLOAD PUSH3 0x461BCD PUSH1 0xE5 SHL DUP2 MSTORE PUSH1 0x20 PUSH1 0x4 DUP3 ADD MSTORE PUSH1 0xF PUSH1 0x24 DUP3 ADD MSTORE PUSH15 0x151BDAD95B881B9BDD08199BDD5B99 PUSH1 0x8A SHL PUSH1 0x44 DUP3 ADD MSTORE PUSH1 0x64 ADD PUSH3 0x3F9 JUMP JUMPDEST PUSH1 0x4 DUP2 ADD SLOAD PUSH1 0xFF AND ISZERO PUSH3 0x5E3 JUMPI PUSH1 0x40 MLOAD PUSH3 0x461BCD PUSH1 0xE5 SHL DUP2 MSTORE PUSH1 0x20 PUSH1 0x4 DUP3 ADD MSTORE PUSH1 0x11 PUSH1 0x24 DUP3 ADD MSTORE PUSH17 0x105B1C9958591E4819DC98591D585D1959 PUSH1 0x7A SHL PUSH1 0x44 DUP3 ADD MSTORE PUSH1 0x64 ADD PUSH3 0x3F9 JUMP JUMPDEST PUSH0 DUP4 GT PUSH3 0x627 JUMPI PUSH1 0x40 MLOAD PUSH3 0x461BCD PUSH1 0xE5 SHL DUP2 MSTORE PUSH1 0x20 PUSH1 0x4 DUP3 ADD MSTORE PUSH1 0x10 PUSH1 0x24 DUP3 ADD MSTORE PUSH16 0x4D7573742073656C6C20746F6B656E73 PUSH1 0x80 SHL PUSH1 0x44 DUP3 ADD MSTORE PUSH1 0x64 ADD PUSH3 0x3F9 JUMP JUMPDEST PUSH1 0x40 MLOAD PUSH4 0x23B872DD PUSH1 0xE0 SHL DUP2 MSTORE CALLER PUSH1 0x4 DUP3 ADD MSTORE ADDRESS PUSH1 0x24 DUP3 ADD MSTORE PUSH1 0x44 DUP2 ADD DUP5 SWAP1 MSTORE PUSH1 0x1 PUSH1 0x1 PUSH1 0xA0 SHL SUB DUP6 AND SWAP1 PUSH4 0x23B872DD SWAP1 PUSH1 0x64 ADD PUSH1 0x20 PUSH1 0x40 MLOAD DUP1 DUP4 SUB DUP2 PUSH0 DUP8 GAS CALL ISZERO DUP1 ISZERO PUSH3 0x678 JUMPI RETURNDATASIZE PUSH0 DUP1 RETURNDATACOPY RETURNDATASIZE PUSH0 REVERT JUMPDEST POP POP POP POP PUSH1 0x40 MLOAD RETURNDATASIZE PUSH1 0x1F NOT PUSH1 0x1F DUP3 ADD AND DUP3 ADD DUP1 PUSH1 0x40 MSTORE POP DUP2 ADD SWAP1 PUSH3 0x69E SWAP2 SWAP1 PUSH3 0x1235 JUMP JUMPDEST POP PUSH0 DUP2 PUSH1 0x2 ADD SLOAD DUP3 PUSH1 0x1 ADD SLOAD PUSH3 0x6B6 SWAP2 SWAP1 PUSH3 0x1256 JUMP JUMPDEST SWAP1 POP PUSH0 DUP5 DUP4 PUSH1 0x2 ADD SLOAD PUSH3 0x6CB SWAP2 SWAP1 PUSH3 0x1270 JUMP JUMPDEST SWAP1 POP PUSH0 PUSH3 0x6DA DUP3 DUP5 PUSH3 0x1286 JUMP JUMPDEST SWAP1 POP PUSH0 DUP2 DUP6 PUSH1 0x1 ADD SLOAD PUSH3 0x6EF SWAP2 SWAP1 PUSH3 0x11FE JUMP JUMPDEST SWAP1 POP PUSH0 PUSH2 0x2710 PUSH1 0x1 SLOAD DUP4 PUSH3 0x705 SWAP2 SWAP1 PUSH3 0x1256 JUMP JUMPDEST PUSH3 0x711 SWAP2 SWAP1 PUSH3 0x1286 JUMP JUMPDEST SWAP1 POP PUSH0 PUSH3 0x720 DUP3 DUP5 PUSH3 0x11FE JUMP JUMPDEST SWAP1 POP DUP8 DUP2 LT ISZERO PUSH3 0x774 JUMPI PUSH1 0x40 MLOAD PUSH3 0x461BCD PUSH1 0xE5 SHL DUP2 MSTORE PUSH1 0x20 PUSH1 0x4 DUP3 ADD MSTORE PUSH1 0x1B PUSH1 0x24 DUP3 ADD MSTORE PUSH32 0x536C69707061676520746F6C6572616E63652065786365656465640000000000 PUSH1 0x44 DUP3 ADD MSTORE PUSH1 0x64 ADD PUSH3 0x3F9 JUMP JUMPDEST DUP3 DUP8 PUSH1 0x3 ADD SLOAD LT ISZERO PUSH3 0x7CA JUMPI PUSH1 0x40 MLOAD PUSH3 0x461BCD PUSH1 0xE5 SHL DUP2 MSTORE PUSH1 0x20 PUSH1 0x4 DUP3 ADD MSTORE PUSH1 0x1F PUSH1 0x24 DUP3 ADD MSTORE PUSH32 0x496E73756666696369656E74207265616C20455448206C697175696469747900 PUSH1 0x44 DUP3 ADD MSTORE PUSH1 0x64 ADD PUSH3 0x3F9 JUMP JUMPDEST PUSH1 0x1 DUP8 ADD DUP5 SWAP1 SSTORE PUSH1 0x2 DUP8 ADD DUP6 SWAP1 SSTORE PUSH1 0x3 DUP8 ADD DUP1 SLOAD DUP5 SWAP2 SWAP1 PUSH0 SWAP1 PUSH3 0x7F0 SWAP1 DUP5 SWAP1 PUSH3 0x11FE JUMP JUMPDEST SWAP1 SWAP2 SSTORE POP POP PUSH1 0x40 MLOAD PUSH0 SWAP1 CALLER SWAP1 DUP4 SWAP1 DUP4 DUP2 DUP2 DUP2 DUP6 DUP8 GAS CALL SWAP3 POP POP POP RETURNDATASIZE DUP1 PUSH0 DUP2 EQ PUSH3 0x836 JUMPI PUSH1 0x40 MLOAD SWAP2 POP PUSH1 0x1F NOT PUSH1 0x3F RETURNDATASIZE ADD AND DUP3 ADD PUSH1 0x40 MSTORE RETURNDATASIZE DUP3 MSTORE RETURNDATASIZE PUSH0 PUSH1 0x20 DUP5 ADD RETURNDATACOPY PUSH3 0x83B JUMP JUMPDEST PUSH1 0x60 SWAP2 POP JUMPDEST POP POP SWAP1 POP DUP1 PUSH3 0x884 JUMPI PUSH1 0x40 MLOAD PUSH3 0x461BCD PUSH1 0xE5 SHL DUP2 MSTORE PUSH1 0x20 PUSH1 0x4 DUP3 ADD MSTORE PUSH1 0x13 PUSH1 0x24 DUP3 ADD MSTORE PUSH19 0x115512081D1C985B9CD9995C8819985A5B1959 PUSH1 0x6A SHL PUSH1 0x44 DUP3 ADD MSTORE PUSH1 0x64 ADD PUSH3 0x3F9 JUMP JUMPDEST PUSH1 0x40 DUP1 MLOAD DUP4 DUP2 MSTORE PUSH1 0x20 DUP2 ADD DUP13 SWAP1 MSTORE PUSH0 DUP2 DUP4 ADD MSTORE SWAP1 MLOAD CALLER SWAP2 PUSH1 0x1 PUSH1 0x1 PUSH1 0xA0 SHL SUB DUP15 AND SWAP2 PUSH32 0x84D137FC8CF4DD48DB72F6856694D133B26C0CFD241162521C3AF00260E061AE SWAP2 DUP2 SWAP1 SUB PUSH1 0x60 ADD SWAP1 LOG3 POP POP POP POP POP POP POP POP POP POP POP JUMP JUMPDEST PUSH3 0x8E7 PUSH3 0xD71 JUMP JUMPDEST PUSH3 0x8F2 PUSH0 PUSH3 0xD9F JUMP JUMPDEST JUMP JUMPDEST PUSH0 DUP1 DUP5 DUP5 PUSH12 0x33B2E3C9FD0803CE8000000 ADDRESS PUSH1 0x40 MLOAD PUSH3 0x914 SWAP1 PUSH3 0xFE2 JUMP JUMPDEST PUSH3 0x923 SWAP5 SWAP4 SWAP3 SWAP2 SWAP1 PUSH3 0x12EB JUMP JUMPDEST PUSH1 0x40 MLOAD DUP1 SWAP2 SUB SWAP1 PUSH0 CREATE DUP1 ISZERO DUP1 ISZERO PUSH3 0x93D JUMPI RETURNDATASIZE PUSH0 DUP1 RETURNDATACOPY RETURNDATASIZE PUSH0 REVERT JUMPDEST POP PUSH1 0x40 DUP1 MLOAD PUSH1 0xA0 DUP2 ADD DUP3 MSTORE PUSH1 0x1 PUSH1 0x1 PUSH1 0xA0 SHL SUB DUP1 DUP5 AND DUP1 DUP4 MSTORE PUSH8 0xDE0B6B3A7640000 PUSH1 0x20 DUP1 DUP6 ADD SWAP2 DUP3 MSTORE PUSH12 0x33B2E3C9FD0803CE8000000 DUP6 DUP8 ADD SWAP1 DUP2 MSTORE PUSH0 PUSH1 0x60 DUP8 ADD DUP2 DUP2 MSTORE PUSH1 0x80 DUP9 ADD DUP3 DUP2 MSTORE DUP7 DUP4 MSTORE PUSH1 0x4 SWAP5 DUP6 SWAP1 MSTORE DUP10 DUP4 KECCAK256 SWAP9 MLOAD DUP10 SLOAD SWAP9 AND PUSH1 0x1 PUSH1 0x1 PUSH1 0xA0 SHL SUB NOT SWAP9 DUP10 AND OR DUP10 SSTORE SWAP5 MLOAD PUSH1 0x1 DUP10 DUP2 ADD SWAP2 SWAP1 SWAP2 SSTORE SWAP3 MLOAD PUSH1 0x2 DUP10 ADD SSTORE MLOAD PUSH1 0x3 DUP9 ADD SSTORE SWAP3 MLOAD SWAP6 SWAP1 SWAP2 ADD DUP1 SLOAD SWAP6 ISZERO ISZERO PUSH1 0xFF NOT SWAP1 SWAP7 AND SWAP6 SWAP1 SWAP6 OR SWAP1 SWAP5 SSTORE PUSH1 0x5 DUP1 SLOAD SWAP5 DUP6 ADD DUP2 SSTORE SWAP1 MSTORE PUSH32 0x36B6384B5ECA791C62761152D0C79BB0604C104A5FB6F4EB0703F3154BB3DB0 SWAP1 SWAP3 ADD DUP1 SLOAD SWAP1 SWAP2 AND DUP3 OR SWAP1 SSTORE SWAP1 MLOAD SWAP2 SWAP3 POP SWAP1 PUSH32 0x10D72033834A2A8A099DFA90492346BE3414C081B6E5155DBBC2093CFB0DBF09 SWAP1 PUSH3 0xA4B SWAP1 DUP9 SWAP1 DUP9 SWAP1 DUP9 SWAP1 PUSH3 0x1335 JUMP JUMPDEST PUSH1 0x40 MLOAD DUP1 SWAP2 SUB SWAP1 LOG2 SWAP5 SWAP4 POP POP POP POP JUMP JUMPDEST PUSH1 0x1 PUSH1 0x1 PUSH1 0xA0 SHL SUB DUP1 DUP4 AND PUSH0 SWAP1 DUP2 MSTORE PUSH1 0x4 PUSH1 0x20 MSTORE PUSH1 0x40 SWAP1 KECCAK256 DUP1 SLOAD SWAP1 SWAP2 AND PUSH3 0xAB8 JUMPI PUSH1 0x40 MLOAD PUSH3 0x461BCD PUSH1 0xE5 SHL DUP2 MSTORE PUSH1 0x20 PUSH1 0x4 DUP3 ADD MSTORE PUSH1 0xF PUSH1 0x24 DUP3 ADD MSTORE PUSH15 0x151BDAD95B881B9BDD08199BDD5B99 PUSH1 0x8A SHL PUSH1 0x44 DUP3 ADD MSTORE PUSH1 0x64 ADD PUSH3 0x3F9 JUMP JUMPDEST PUSH1 0x4 DUP2 ADD SLOAD PUSH1 0xFF AND ISZERO PUSH3 0xB03 JUMPI PUSH1 0x40 MLOAD PUSH3 0x461BCD PUSH1 0xE5 SHL DUP2 MSTORE PUSH1 0x20 PUSH1 0x4 DUP3 ADD MSTORE PUSH1 0x11 PUSH1 0x24 DUP3 ADD MSTORE PUSH17 0x105B1C9958591E4819DC98591D585D1959 PUSH1 0x7A SHL PUSH1 0x44 DUP3 ADD MSTORE PUSH1 0x64 ADD PUSH3 0x3F9 JUMP JUMPDEST PUSH0 CALLVALUE GT PUSH3 0xB44 JUMPI PUSH1 0x40 MLOAD PUSH3 0x461BCD PUSH1 0xE5 SHL DUP2 MSTORE PUSH1 0x20 PUSH1 0x4 DUP3 ADD MSTORE PUSH1 0xD PUSH1 0x24 DUP3 ADD MSTORE PUSH13 0x9AEAE6E840E6CADCC8408AA89 PUSH1 0x9B SHL PUSH1 0x44 DUP3 ADD MSTORE PUSH1 0x64 ADD PUSH3 0x3F9 JUMP JUMPDEST PUSH0 PUSH2 0x2710 PUSH1 0x1 SLOAD CALLVALUE PUSH3 0xB58 SWAP2 SWAP1 PUSH3 0x1256 JUMP JUMPDEST PUSH3 0xB64 SWAP2 SWAP1 PUSH3 0x1286 JUMP JUMPDEST SWAP1 POP PUSH0 PUSH3 0xB73 DUP3 CALLVALUE PUSH3 0x11FE JUMP JUMPDEST SWAP1 POP PUSH0 DUP4 PUSH1 0x2 ADD SLOAD DUP5 PUSH1 0x1 ADD SLOAD PUSH3 0xB8C SWAP2 SWAP1 PUSH3 0x1256 JUMP JUMPDEST SWAP1 POP PUSH0 DUP3 DUP6 PUSH1 0x1 ADD SLOAD PUSH3 0xBA1 SWAP2 SWAP1 PUSH3 0x1270 JUMP JUMPDEST SWAP1 POP PUSH0 PUSH3 0xBB0 DUP3 DUP5 PUSH3 0x1286 JUMP JUMPDEST SWAP1 POP PUSH0 DUP2 DUP8 PUSH1 0x2 ADD SLOAD PUSH3 0xBC5 SWAP2 SWAP1 PUSH3 0x11FE JUMP JUMPDEST SWAP1 POP DUP8 DUP2 LT ISZERO PUSH3 0xC19 JUMPI PUSH1 0x40 MLOAD PUSH3 0x461BCD PUSH1 0xE5 SHL DUP2 MSTORE PUSH1 0x20 PUSH1 0x4 DUP3 ADD MSTORE PUSH1 0x1B PUSH1 0x24 DUP3 ADD MSTORE PUSH32 0x536C69707061676520746F6C6572616E63652065786365656465640000000000 PUSH1 0x44 DUP3 ADD MSTORE PUSH1 0x64 ADD PUSH3 0x3F9 JUMP JUMPDEST PUSH1 0x1 DUP8 ADD DUP4 SWAP1 SSTORE PUSH1 0x2 DUP8 ADD DUP3 SWAP1 SSTORE PUSH1 0x3 DUP8 ADD DUP1 SLOAD DUP7 SWAP2 SWAP1 PUSH0 SWAP1 PUSH3 0xC3F SWAP1 DUP5 SWAP1 PUSH3 0x1270 JUMP JUMPDEST SWAP1 SWAP2 SSTORE POP POP PUSH1 0x40 MLOAD PUSH4 0xA9059CBB PUSH1 0xE0 SHL DUP2 MSTORE CALLER PUSH1 0x4 DUP3 ADD MSTORE PUSH1 0x24 DUP2 ADD DUP3 SWAP1 MSTORE PUSH1 0x1 PUSH1 0x1 PUSH1 0xA0 SHL SUB DUP11 AND SWAP1 PUSH4 0xA9059CBB SWAP1 PUSH1 0x44 ADD PUSH1 0x20 PUSH1 0x40 MLOAD DUP1 DUP4 SUB DUP2 PUSH0 DUP8 GAS CALL ISZERO DUP1 ISZERO PUSH3 0xC8F JUMPI RETURNDATASIZE PUSH0 DUP1 RETURNDATACOPY RETURNDATASIZE PUSH0 REVERT JUMPDEST POP POP POP POP PUSH1 0x40 MLOAD RETURNDATASIZE PUSH1 0x1F NOT PUSH1 0x1F DUP3 ADD AND DUP3 ADD DUP1 PUSH1 0x40 MSTORE POP DUP2 ADD SWAP1 PUSH3 0xCB5 SWAP2 SWAP1 PUSH3 0x1235 JUMP JUMPDEST POP PUSH1 0x40 DUP1 MLOAD CALLVALUE DUP2 MSTORE PUSH1 0x20 DUP2 ADD DUP4 SWAP1 MSTORE PUSH1 0x1 DUP2 DUP4 ADD MSTORE SWAP1 MLOAD CALLER SWAP2 PUSH1 0x1 PUSH1 0x1 PUSH1 0xA0 SHL SUB DUP13 AND SWAP2 PUSH32 0x84D137FC8CF4DD48DB72F6856694D133B26C0CFD241162521C3AF00260E061AE SWAP2 DUP2 SWAP1 SUB PUSH1 0x60 ADD SWAP1 LOG3 PUSH9 0x14D1120D7B1600000 DUP8 PUSH1 0x3 ADD SLOAD LT PUSH3 0xD23 JUMPI PUSH3 0xD23 DUP10 PUSH3 0xDEE JUMP JUMPDEST POP POP POP POP POP POP POP POP POP JUMP JUMPDEST PUSH3 0xD38 PUSH3 0xD71 JUMP JUMPDEST PUSH1 0x1 PUSH1 0x1 PUSH1 0xA0 SHL SUB DUP2 AND PUSH3 0xD63 JUMPI PUSH1 0x40 MLOAD PUSH4 0x1E4FBDF7 PUSH1 0xE0 SHL DUP2 MSTORE PUSH0 PUSH1 0x4 DUP3 ADD MSTORE PUSH1 0x24 ADD PUSH3 0x3F9 JUMP JUMPDEST PUSH3 0xD6E DUP2 PUSH3 0xD9F JUMP JUMPDEST POP JUMP JUMPDEST PUSH0 SLOAD PUSH1 0x1 PUSH1 0x1 PUSH1 0xA0 SHL SUB AND CALLER EQ PUSH3 0x8F2 JUMPI PUSH1 0x40 MLOAD PUSH4 0x118CDAA7 PUSH1 0xE0 SHL DUP2 MSTORE CALLER PUSH1 0x4 DUP3 ADD MSTORE PUSH1 0x24 ADD PUSH3 0x3F9 JUMP JUMPDEST PUSH0 DUP1 SLOAD PUSH1 0x1 PUSH1 0x1 PUSH1 0xA0 SHL SUB DUP4 DUP2 AND PUSH1 0x1 PUSH1 0x1 PUSH1 0xA0 SHL SUB NOT DUP4 AND DUP2 OR DUP5 SSTORE PUSH1 0x40 MLOAD SWAP2 SWAP1 SWAP3 AND SWAP3 DUP4 SWAP2 PUSH32 0x8BE0079C531659141344CD1FD0A4F28419497F9722A3DAAFE3B4186F6B6457E0 SWAP2 SWAP1 LOG3 POP POP JUMP JUMPDEST PUSH1 0x1 PUSH1 0x1 PUSH1 0xA0 SHL SUB DUP2 AND PUSH0 DUP2 DUP2 MSTORE PUSH1 0x4 PUSH1 0x20 DUP2 SWAP1 MSTORE PUSH1 0x40 DUP1 DUP4 KECCAK256 DUP1 DUP4 ADD DUP1 SLOAD PUSH1 0xFF NOT AND PUSH1 0x1 OR SWAP1 SSTORE PUSH1 0x3 DUP2 ADD SLOAD SWAP2 MLOAD PUSH4 0x70A08231 PUSH1 0xE0 SHL DUP2 MSTORE ADDRESS SWAP4 DUP2 ADD SWAP4 SWAP1 SWAP4 MSTORE SWAP4 SWAP1 SWAP3 SWAP2 PUSH4 0x70A08231 SWAP1 PUSH1 0x24 ADD PUSH1 0x20 PUSH1 0x40 MLOAD DUP1 DUP4 SUB DUP2 DUP7 GAS STATICCALL ISZERO DUP1 ISZERO PUSH3 0xE58 JUMPI RETURNDATASIZE PUSH0 DUP1 RETURNDATACOPY RETURNDATASIZE PUSH0 REVERT JUMPDEST POP POP POP POP PUSH1 0x40 MLOAD RETURNDATASIZE PUSH1 0x1F NOT PUSH1 0x1F DUP3 ADD AND DUP3 ADD DUP1 PUSH1 0x40 MSTORE POP DUP2 ADD SWAP1 PUSH3 0xE7E SWAP2 SWAP1 PUSH3 0x137D JUMP JUMPDEST PUSH1 0x2 SLOAD PUSH1 0x40 MLOAD PUSH4 0x95EA7B3 PUSH1 0xE0 SHL DUP2 MSTORE PUSH1 0x1 PUSH1 0x1 PUSH1 0xA0 SHL SUB SWAP2 DUP3 AND PUSH1 0x4 DUP3 ADD MSTORE PUSH1 0x24 DUP2 ADD DUP4 SWAP1 MSTORE SWAP2 SWAP3 POP DUP6 AND SWAP1 PUSH4 0x95EA7B3 SWAP1 PUSH1 0x44 ADD PUSH1 0x20 PUSH1 0x40 MLOAD DUP1 DUP4 SUB DUP2 PUSH0 DUP8 GAS CALL ISZERO DUP1 ISZERO PUSH3 0xED1 JUMPI RETURNDATASIZE PUSH0 DUP1 RETURNDATACOPY RETURNDATASIZE PUSH0 REVERT JUMPDEST POP POP POP POP PUSH1 0x40 MLOAD RETURNDATASIZE PUSH1 0x1F NOT PUSH1 0x1F DUP3 ADD AND DUP3 ADD DUP1 PUSH1 0x40 MSTORE POP DUP2 ADD SWAP1 PUSH3 0xEF7 SWAP2 SWAP1 PUSH3 0x1235 JUMP JUMPDEST POP PUSH1 0x2 SLOAD PUSH1 0x40 MLOAD PUSH4 0xF305D719 PUSH1 0xE0 SHL DUP2 MSTORE PUSH1 0x1 PUSH1 0x1 PUSH1 0xA0 SHL SUB DUP7 DUP2 AND PUSH1 0x4 DUP4 ADD MSTORE PUSH1 0x24 DUP3 ADD DUP5 SWAP1 MSTORE PUSH0 PUSH1 0x44 DUP4 ADD DUP2 SWAP1 MSTORE PUSH1 0x64 DUP4 ADD MSTORE PUSH2 0xDEAD PUSH1 0x84 DUP4 ADD MSTORE TIMESTAMP PUSH1 0xA4 DUP4 ADD MSTORE SWAP1 SWAP2 AND SWAP1 PUSH4 0xF305D719 SWAP1 DUP5 SWAP1 PUSH1 0xC4 ADD PUSH1 0x60 PUSH1 0x40 MLOAD DUP1 DUP4 SUB DUP2 DUP6 DUP9 GAS CALL ISZERO DUP1 ISZERO PUSH3 0xF66 JUMPI RETURNDATASIZE PUSH0 DUP1 RETURNDATACOPY RETURNDATASIZE PUSH0 REVERT JUMPDEST POP POP POP POP POP PUSH1 0x40 MLOAD RETURNDATASIZE PUSH1 0x1F NOT PUSH1 0x1F DUP3 ADD AND DUP3 ADD DUP1 PUSH1 0x40 MSTORE POP DUP2 ADD SWAP1 PUSH3 0xF8D SWAP2 SWAP1 PUSH3 0x1395 JUMP JUMPDEST POP POP PUSH1 0x40 DUP1 MLOAD PUSH0 DUP2 MSTORE PUSH1 0x20 DUP2 ADD DUP6 SWAP1 MSTORE SWAP1 DUP2 ADD DUP4 SWAP1 MSTORE PUSH1 0x1 PUSH1 0x1 PUSH1 0xA0 SHL SUB DUP7 AND SWAP2 POP PUSH32 0x18A56450D3C666E2BAE9E0829FCADA82A9AB0DEEF6E33C2496752C88D4155C9D SWAP1 PUSH1 0x60 ADD PUSH1 0x40 MLOAD DUP1 SWAP2 SUB SWAP1 LOG2 POP POP POP POP JUMP JUMPDEST PUSH2 0xBF5 DUP1 PUSH3 0x13C2 DUP4 CODECOPY ADD SWAP1 JUMP JUMPDEST PUSH0 PUSH1 0x20 DUP3 DUP5 SUB SLT ISZERO PUSH3 0x1001 JUMPI PUSH0 DUP1 REVERT JUMPDEST POP CALLDATALOAD SWAP2 SWAP1 POP JUMP JUMPDEST DUP1 CALLDATALOAD PUSH1 0x1 PUSH1 0x1 PUSH1 0xA0 SHL SUB DUP2 AND DUP2 EQ PUSH3 0x101F JUMPI PUSH0 DUP1 REVERT JUMPDEST SWAP2 SWAP1 POP JUMP JUMPDEST PUSH0 DUP1 PUSH0 PUSH1 0x60 DUP5 DUP7 SUB SLT ISZERO PUSH3 0x1037 JUMPI PUSH0 DUP1 REVERT JUMPDEST PUSH3 0x1042 DUP5 PUSH3 0x1008 JUMP JUMPDEST SWAP6 PUSH1 0x20 DUP6 ADD CALLDATALOAD SWAP6 POP PUSH1 0x40 SWAP1 SWAP5 ADD CALLDATALOAD SWAP4 SWAP3 POP POP POP JUMP JUMPDEST PUSH0 PUSH1 0x20 DUP3 DUP5 SUB SLT ISZERO PUSH3 0x1068 JUMPI PUSH0 DUP1 REVERT JUMPDEST PUSH3 0x1073 DUP3 PUSH3 0x1008 JUMP JUMPDEST SWAP4 SWAP3 POP POP POP JUMP JUMPDEST PUSH4 0x4E487B71 PUSH1 0xE0 SHL PUSH0 MSTORE PUSH1 0x41 PUSH1 0x4 MSTORE PUSH1 0x24 PUSH0 REVERT JUMPDEST PUSH0 DUP3 PUSH1 0x1F DUP4 ADD SLT PUSH3 0x109E JUMPI PUSH0 DUP1 REVERT JUMPDEST DUP2 CALLDATALOAD PUSH8 0xFFFFFFFFFFFFFFFF DUP1 DUP3 GT ISZERO PUSH3 0x10BC JUMPI PUSH3 0x10BC PUSH3 0x107A JUMP JUMPDEST PUSH1 0x40 MLOAD PUSH1 0x1F DUP4 ADD PUSH1 0x1F NOT SWAP1 DUP2 AND PUSH1 0x3F ADD AND DUP2 ADD SWAP1 DUP3 DUP3 GT DUP2 DUP4 LT OR ISZERO PUSH3 0x10E7 JUMPI PUSH3 0x10E7 PUSH3 0x107A JUMP JUMPDEST DUP2 PUSH1 0x40 MSTORE DUP4 DUP2 MSTORE DUP7 PUSH1 0x20 DUP6 DUP9 ADD ADD GT ISZERO PUSH3 0x1100 JUMPI PUSH0 DUP1 REVERT JUMPDEST DUP4 PUSH1 0x20 DUP8 ADD PUSH1 0x20 DUP4 ADD CALLDATACOPY PUSH0 PUSH1 0x20 DUP6 DUP4 ADD ADD MSTORE DUP1 SWAP5 POP POP POP POP POP SWAP3 SWAP2 POP POP JUMP JUMPDEST PUSH0 DUP1 PUSH0 PUSH1 0x60 DUP5 DUP7 SUB SLT ISZERO PUSH3 0x1132 JUMPI PUSH0 DUP1 REVERT JUMPDEST DUP4 CALLDATALOAD PUSH8 0xFFFFFFFFFFFFFFFF DUP1 DUP3 GT ISZERO PUSH3 0x114A JUMPI PUSH0 DUP1 REVERT JUMPDEST PUSH3 0x1158 DUP8 DUP4 DUP9 ADD PUSH3 0x108E JUMP JUMPDEST SWAP5 POP PUSH1 0x20 DUP7 ADD CALLDATALOAD SWAP2 POP DUP1 DUP3 GT ISZERO PUSH3 0x116E JUMPI PUSH0 DUP1 REVERT JUMPDEST PUSH3 0x117C DUP8 DUP4 DUP9 ADD PUSH3 0x108E JUMP JUMPDEST SWAP4 POP PUSH1 0x40 DUP7 ADD CALLDATALOAD SWAP2 POP DUP1 DUP3 GT ISZERO PUSH3 0x1192 JUMPI PUSH0 DUP1 REVERT JUMPDEST POP PUSH3 0x11A1 DUP7 DUP3 DUP8 ADD PUSH3 0x108E JUMP JUMPDEST SWAP2 POP POP SWAP3 POP SWAP3 POP SWAP3 JUMP JUMPDEST PUSH0 DUP1 PUSH1 0x40 DUP4 DUP6 SUB SLT ISZERO PUSH3 0x11BD JUMPI PUSH0 DUP1 REVERT JUMPDEST PUSH3 0x11C8 DUP4 PUSH3 0x1008 JUMP JUMPDEST SWAP5 PUSH1 0x20 SWAP4 SWAP1 SWAP4 ADD CALLDATALOAD SWAP4 POP POP POP JUMP JUMPDEST PUSH4 0x4E487B71 PUSH1 0xE0 SHL PUSH0 MSTORE PUSH1 0x32 PUSH1 0x4 MSTORE PUSH1 0x24 PUSH0 REVERT JUMPDEST PUSH4 0x4E487B71 PUSH1 0xE0 SHL PUSH0 MSTORE PUSH1 0x11 PUSH1 0x4 MSTORE PUSH1 0x24 PUSH0 REVERT JUMPDEST DUP2 DUP2 SUB DUP2 DUP2 GT ISZERO PUSH3 0x1214 JUMPI PUSH3 0x1214 PUSH3 0x11EA JUMP JUMPDEST SWAP3 SWAP2 POP POP JUMP JUMPDEST PUSH0 PUSH1 0x1 DUP3 ADD PUSH3 0x122E JUMPI PUSH3 0x122E PUSH3 0x11EA JUMP JUMPDEST POP PUSH1 0x1 ADD SWAP1 JUMP JUMPDEST PUSH0 PUSH1 0x20 DUP3 DUP5 SUB SLT ISZERO PUSH3 0x1246 JUMPI PUSH0 DUP1 REVERT JUMPDEST DUP2 MLOAD DUP1 ISZERO ISZERO DUP2 EQ PUSH3 0x1073 JUMPI PUSH0 DUP1 REVERT JUMPDEST DUP1 DUP3 MUL DUP2 ISZERO DUP3 DUP3 DIV DUP5 EQ OR PUSH3 0x1214 JUMPI PUSH3 0x1214 PUSH3 0x11EA JUMP JUMPDEST DUP1 DUP3 ADD DUP1 DUP3 GT ISZERO PUSH3 0x1214 JUMPI PUSH3 0x1214 PUSH3 0x11EA JUMP JUMPDEST PUSH0 DUP3 PUSH3 0x12A1 JUMPI PUSH4 0x4E487B71 PUSH1 0xE0 SHL PUSH0 MSTORE PUSH1 0x12 PUSH1 0x4 MSTORE PUSH1 0x24 PUSH0 REVERT JUMPDEST POP DIV SWAP1 JUMP JUMPDEST PUSH0 DUP2 MLOAD DUP1 DUP5 MSTORE PUSH0 JUMPDEST DUP2 DUP2 LT ISZERO PUSH3 0x12CC JUMPI PUSH1 0x20 DUP2 DUP6 ADD DUP2 ADD MLOAD DUP7 DUP4 ADD DUP3 ADD MSTORE ADD PUSH3 0x12AE JUMP JUMPDEST POP PUSH0 PUSH1 0x20 DUP3 DUP7 ADD ADD MSTORE PUSH1 0x20 PUSH1 0x1F NOT PUSH1 0x1F DUP4 ADD AND DUP6 ADD ADD SWAP2 POP POP SWAP3 SWAP2 POP POP JUMP JUMPDEST PUSH1 0x80 DUP2 MSTORE PUSH0 PUSH3 0x12FF PUSH1 0x80 DUP4 ADD DUP8 PUSH3 0x12A6 JUMP JUMPDEST DUP3 DUP2 SUB PUSH1 0x20 DUP5 ADD MSTORE PUSH3 0x1313 DUP2 DUP8 PUSH3 0x12A6 JUMP JUMPDEST PUSH1 0x40 DUP5 ADD SWAP6 SWAP1 SWAP6 MSTORE POP POP PUSH1 0x1 PUSH1 0x1 PUSH1 0xA0 SHL SUB SWAP2 SWAP1 SWAP2 AND PUSH1 0x60 SWAP1 SWAP2 ADD MSTORE SWAP3 SWAP2 POP POP JUMP JUMPDEST PUSH1 0x60 DUP2 MSTORE PUSH0 PUSH3 0x1349 PUSH1 0x60 DUP4 ADD DUP7 PUSH3 0x12A6 JUMP JUMPDEST DUP3 DUP2 SUB PUSH1 0x20 DUP5 ADD MSTORE PUSH3 0x135D DUP2 DUP7 PUSH3 0x12A6 JUMP JUMPDEST SWAP1 POP DUP3 DUP2 SUB PUSH1 0x40 DUP5 ADD MSTORE PUSH3 0x1373 DUP2 DUP6 PUSH3 0x12A6 JUMP JUMPDEST SWAP7 SWAP6 POP POP POP POP POP POP JUMP JUMPDEST PUSH0 PUSH1 0x20 DUP3 DUP5 SUB SLT ISZERO PUSH3 0x138E JUMPI PUSH0 DUP1 REVERT JUMPDEST POP MLOAD SWAP2 SWAP1 POP JUMP JUMPDEST PUSH0 DUP1 PUSH0 PUSH1 0x60 DUP5 DUP7 SUB SLT ISZERO PUSH3 0x13A8 JUMPI PUSH0 DUP1 REVERT JUMPDEST DUP4 MLOAD SWAP3 POP PUSH1 0x20 DUP5 ADD MLOAD SWAP2 POP PUSH1 0x40 DUP5 ADD MLOAD SWAP1 POP SWAP3 POP SWAP3 POP SWAP3 JUMP INVALID PUSH1 0x80 PUSH1 0x40 MSTORE CALLVALUE DUP1 ISZERO PUSH3 0x10 JUMPI PUSH0 DUP1 REVERT JUMPDEST POP PUSH1 0x40 MLOAD PUSH3 0xBF5 CODESIZE SUB DUP1 PUSH3 0xBF5 DUP4 CODECOPY DUP2 ADD PUSH1 0x40 DUP2 SWAP1 MSTORE PUSH3 0x33 SWAP2 PUSH3 0x2B3 JUMP JUMPDEST DUP4 DUP4 PUSH1 0x3 PUSH3 0x43 DUP4 DUP3 PUSH3 0x3CE JUMP JUMPDEST POP PUSH1 0x4 PUSH3 0x52 DUP3 DUP3 PUSH3 0x3CE JUMP JUMPDEST POP POP PUSH1 0x5 DUP1 SLOAD PUSH1 0x1 PUSH1 0x1 PUSH1 0xA0 SHL SUB NOT AND PUSH1 0x1 PUSH1 0x1 PUSH1 0xA0 SHL SUB DUP5 AND OR SWAP1 SSTORE POP PUSH3 0x7C DUP2 DUP4 PUSH3 0x86 JUMP JUMPDEST POP POP POP POP PUSH3 0x4BC JUMP JUMPDEST PUSH1 0x1 PUSH1 0x1 PUSH1 0xA0 SHL SUB DUP3 AND PUSH3 0xB5 JUMPI PUSH1 0x40 MLOAD PUSH4 0xEC442F05 PUSH1 0xE0 SHL DUP2 MSTORE PUSH0 PUSH1 0x4 DUP3 ADD MSTORE PUSH1 0x24 ADD JUMPDEST PUSH1 0x40 MLOAD DUP1 SWAP2 SUB SWAP1 REVERT JUMPDEST PUSH3 0xC2 PUSH0 DUP4 DUP4 PUSH3 0xC6 JUMP JUMPDEST POP POP JUMP JUMPDEST PUSH1 0x1 PUSH1 0x1 PUSH1 0xA0 SHL SUB DUP4 AND PUSH3 0xF4 JUMPI DUP1 PUSH1 0x2 PUSH0 DUP3 DUP3 SLOAD PUSH3 0xE8 SWAP2 SWAP1 PUSH3 0x496 JUMP JUMPDEST SWAP1 SWAP2 SSTORE POP PUSH3 0x166 SWAP1 POP JUMP JUMPDEST PUSH1 0x1 PUSH1 0x1 PUSH1 0xA0 SHL SUB DUP4 AND PUSH0 SWAP1 DUP2 MSTORE PUSH1 0x20 DUP2 SWAP1 MSTORE PUSH1 0x40 SWAP1 KECCAK256 SLOAD DUP2 DUP2 LT ISZERO PUSH3 0x148 JUMPI PUSH1 0x40 MLOAD PUSH4 0x391434E3 PUSH1 0xE2 SHL DUP2 MSTORE PUSH1 0x1 PUSH1 0x1 PUSH1 0xA0 SHL SUB DUP6 AND PUSH1 0x4 DUP3 ADD MSTORE PUSH1 0x24 DUP2 ADD DUP3 SWAP1 MSTORE PUSH1 0x44 DUP2 ADD DUP4 SWAP1 MSTORE PUSH1 0x64 ADD PUSH3 0xAC JUMP JUMPDEST PUSH1 0x1 PUSH1 0x1 PUSH1 0xA0 SHL SUB DUP5 AND PUSH0 SWAP1 DUP2 MSTORE PUSH1 0x20 DUP2 SWAP1 MSTORE PUSH1 0x40 SWAP1 KECCAK256 SWAP1 DUP3 SWAP1 SUB SWAP1 SSTORE JUMPDEST PUSH1 0x1 PUSH1 0x1 PUSH1 0xA0 SHL SUB DUP3 AND PUSH3 0x184 JUMPI PUSH1 0x2 DUP1 SLOAD DUP3 SWAP1 SUB SWAP1 SSTORE PUSH3 0x1A2 JUMP JUMPDEST PUSH1 0x1 PUSH1 0x1 PUSH1 0xA0 SHL SUB DUP3 AND PUSH0 SWAP1 DUP2 MSTORE PUSH1 0x20 DUP2 SWAP1 MSTORE PUSH1 0x40 SWAP1 KECCAK256 DUP1 SLOAD DUP3 ADD SWAP1 SSTORE JUMPDEST DUP2 PUSH1 0x1 PUSH1 0x1 PUSH1 0xA0 SHL SUB AND DUP4 PUSH1 0x1 PUSH1 0x1 PUSH1 0xA0 SHL SUB AND PUSH32 0xDDF252AD1BE2C89B69C2B068FC378DAA952BA7F163C4A11628F55A4DF523B3EF DUP4 PUSH1 0x40 MLOAD PUSH3 0x1E8 SWAP2 DUP2 MSTORE PUSH1 0x20 ADD SWAP1 JUMP JUMPDEST PUSH1 0x40 MLOAD DUP1 SWAP2 SUB SWAP1 LOG3 POP POP POP JUMP JUMPDEST PUSH4 0x4E487B71 PUSH1 0xE0 SHL PUSH0 MSTORE PUSH1 0x41 PUSH1 0x4 MSTORE PUSH1 0x24 PUSH0 REVERT JUMPDEST PUSH0 DUP3 PUSH1 0x1F DUP4 ADD SLT PUSH3 0x219 JUMPI PUSH0 DUP1 REVERT JUMPDEST DUP2 MLOAD PUSH1 0x1 PUSH1 0x1 PUSH1 0x40 SHL SUB DUP1 DUP3 GT ISZERO PUSH3 0x236 JUMPI PUSH3 0x236 PUSH3 0x1F5 JUMP JUMPDEST PUSH1 0x40 MLOAD PUSH1 0x1F DUP4 ADD PUSH1 0x1F NOT SWAP1 DUP2 AND PUSH1 0x3F ADD AND DUP2 ADD SWAP1 DUP3 DUP3 GT DUP2 DUP4 LT OR ISZERO PUSH3 0x261 JUMPI PUSH3 0x261 PUSH3 0x1F5 JUMP JUMPDEST DUP2 PUSH1 0x40 MSTORE DUP4 DUP2 MSTORE PUSH1 0x20 SWAP3 POP DUP7 DUP4 DUP6 DUP9 ADD ADD GT ISZERO PUSH3 0x27D JUMPI PUSH0 DUP1 REVERT JUMPDEST PUSH0 SWAP2 POP JUMPDEST DUP4 DUP3 LT ISZERO PUSH3 0x2A0 JUMPI DUP6 DUP3 ADD DUP4 ADD MLOAD DUP2 DUP4 ADD DUP5 ADD MSTORE SWAP1 DUP3 ADD SWAP1 PUSH3 0x281 JUMP JUMPDEST PUSH0 SWAP4 DUP2 ADD SWAP1 SWAP3 ADD SWAP3 SWAP1 SWAP3 MSTORE SWAP5 SWAP4 POP POP POP POP JUMP JUMPDEST PUSH0 DUP1 PUSH0 DUP1 PUSH1 0x80 DUP6 DUP8 SUB SLT ISZERO PUSH3 0x2C7 JUMPI PUSH0 DUP1 REVERT JUMPDEST DUP5 MLOAD PUSH1 0x1 PUSH1 0x1 PUSH1 0x40 SHL SUB DUP1 DUP3 GT ISZERO PUSH3 0x2DE JUMPI PUSH0 DUP1 REVERT JUMPDEST PUSH3 0x2EC DUP9 DUP4 DUP10 ADD PUSH3 0x209 JUMP JUMPDEST SWAP6 POP PUSH1 0x20 DUP8 ADD MLOAD SWAP2 POP DUP1 DUP3 GT ISZERO PUSH3 0x302 JUMPI PUSH0 DUP1 REVERT JUMPDEST POP PUSH3 0x311 DUP8 DUP3 DUP9 ADD PUSH3 0x209 JUMP JUMPDEST PUSH1 0x40 DUP8 ADD MLOAD PUSH1 0x60 DUP9 ADD MLOAD SWAP2 SWAP6 POP SWAP4 POP SWAP1 POP PUSH1 0x1 PUSH1 0x1 PUSH1 0xA0 SHL SUB DUP2 AND DUP2 EQ PUSH3 0x337 JUMPI PUSH0 DUP1 REVERT JUMPDEST SWAP4 SWAP7 SWAP3 SWAP6 POP SWAP1 SWAP4 POP POP JUMP JUMPDEST PUSH1 0x1 DUP2 DUP2 SHR SWAP1 DUP3 AND DUP1 PUSH3 0x357 JUMPI PUSH1 0x7F DUP3 AND SWAP2 POP JUMPDEST PUSH1 0x20 DUP3 LT DUP2 SUB PUSH3 0x376 JUMPI PUSH4 0x4E487B71 PUSH1 0xE0 SHL PUSH0 MSTORE PUSH1 0x22 PUSH1 0x4 MSTORE PUSH1 0x24 PUSH0 REVERT JUMPDEST POP SWAP2 SWAP1 POP JUMP JUMPDEST PUSH1 0x1F DUP3 GT ISZERO PUSH3 0x3C9 JUMPI PUSH0 DUP2 DUP2 MSTORE PUSH1 0x20 DUP2 KECCAK256 PUSH1 0x1F DUP6 ADD PUSH1 0x5 SHR DUP2 ADD PUSH1 0x20 DUP7 LT ISZERO PUSH3 0x3A4 JUMPI POP DUP1 JUMPDEST PUSH1 0x1F DUP6 ADD PUSH1 0x5 SHR DUP3 ADD SWAP2 POP JUMPDEST DUP2 DUP2 LT ISZERO PUSH3 0x3C5 JUMPI DUP3 DUP2 SSTORE PUSH1 0x1 ADD PUSH3 0x3B0 JUMP JUMPDEST POP POP POP JUMPDEST POP POP POP JUMP JUMPDEST DUP2 MLOAD PUSH1 0x1 PUSH1 0x1 PUSH1 0x40 SHL SUB DUP2 GT ISZERO PUSH3 0x3EA JUMPI PUSH3 0x3EA PUSH3 0x1F5 JUMP JUMPDEST PUSH3 0x402 DUP2 PUSH3 0x3FB DUP5 SLOAD PUSH3 0x342 JUMP JUMPDEST DUP5 PUSH3 0x37C JUMP JUMPDEST PUSH1 0x20 DUP1 PUSH1 0x1F DUP4 GT PUSH1 0x1 DUP2 EQ PUSH3 0x438 JUMPI PUSH0 DUP5 ISZERO PUSH3 0x420 JUMPI POP DUP6 DUP4 ADD MLOAD JUMPDEST PUSH0 NOT PUSH1 0x3 DUP7 SWAP1 SHL SHR NOT AND PUSH1 0x1 DUP6 SWAP1 SHL OR DUP6 SSTORE PUSH3 0x3C5 JUMP JUMPDEST PUSH0 DUP6 DUP2 MSTORE PUSH1 0x20 DUP2 KECCAK256 PUSH1 0x1F NOT DUP7 AND SWAP2 JUMPDEST DUP3 DUP2 LT ISZERO PUSH3 0x468 JUMPI DUP9 DUP7 ADD MLOAD DUP3 SSTORE SWAP5 DUP5 ADD SWAP5 PUSH1 0x1 SWAP1 SWAP2 ADD SWAP1 DUP5 ADD PUSH3 0x447 JUMP JUMPDEST POP DUP6 DUP3 LT ISZERO PUSH3 0x486 JUMPI DUP8 DUP6 ADD MLOAD PUSH0 NOT PUSH1 0x3 DUP9 SWAP1 SHL PUSH1 0xF8 AND SHR NOT AND DUP2 SSTORE JUMPDEST POP POP POP POP POP PUSH1 0x1 SWAP1 DUP2 SHL ADD SWAP1 SSTORE POP JUMP JUMPDEST DUP1 DUP3 ADD DUP1 DUP3 GT ISZERO PUSH3 0x4B6 JUMPI PUSH4 0x4E487B71 PUSH1 0xE0 SHL PUSH0 MSTORE PUSH1 0x11 PUSH1 0x4 MSTORE PUSH1 0x24 PUSH0 REVERT JUMPDEST SWAP3 SWAP2 POP POP JUMP JUMPDEST PUSH2 0x72B DUP1 PUSH3 0x4CA PUSH0 CODECOPY PUSH0 RETURN INVALID PUSH1 0x80 PUSH1 0x40 MSTORE CALLVALUE DUP1 ISZERO PUSH2 0xF JUMPI PUSH0 DUP1 REVERT JUMPDEST POP PUSH1 0x4 CALLDATASIZE LT PUSH2 0x9B JUMPI PUSH0 CALLDATALOAD PUSH1 0xE0 SHR DUP1 PUSH4 0x313CE567 GT PUSH2 0x63 JUMPI DUP1 PUSH4 0x313CE567 EQ PUSH2 0x12C JUMPI DUP1 PUSH4 0x70A08231 EQ PUSH2 0x13B JUMPI DUP1 PUSH4 0x95D89B41 EQ PUSH2 0x163 JUMPI DUP1 PUSH4 0xA9059CBB EQ PUSH2 0x16B JUMPI DUP1 PUSH4 0xDD62ED3E EQ PUSH2 0x17E JUMPI PUSH0 DUP1 REVERT JUMPDEST DUP1 PUSH4 0x2669B52 EQ PUSH2 0x9F JUMPI DUP1 PUSH4 0x6FDDE03 EQ PUSH2 0xCF JUMPI DUP1 PUSH4 0x95EA7B3 EQ PUSH2 0xE4 JUMPI DUP1 PUSH4 0x18160DDD EQ PUSH2 0x107 JUMPI DUP1 PUSH4 0x23B872DD EQ PUSH2 0x119 JUMPI JUMPDEST PUSH0 DUP1 REVERT JUMPDEST PUSH1 0x5 SLOAD PUSH2 0xB2 SWAP1 PUSH1 0x1 PUSH1 0x1 PUSH1 0xA0 SHL SUB AND DUP2 JUMP JUMPDEST PUSH1 0x40 MLOAD PUSH1 0x1 PUSH1 0x1 PUSH1 0xA0 SHL SUB SWAP1 SWAP2 AND DUP2 MSTORE PUSH1 0x20 ADD JUMPDEST PUSH1 0x40 MLOAD DUP1 SWAP2 SUB SWAP1 RETURN JUMPDEST PUSH2 0xD7 PUSH2 0x1B6 JUMP JUMPDEST PUSH1 0x40 MLOAD PUSH2 0xC6 SWAP2 SWAP1 PUSH2 0x586 JUMP JUMPDEST PUSH2 0xF7 PUSH2 0xF2 CALLDATASIZE PUSH1 0x4 PUSH2 0x5EC JUMP JUMPDEST PUSH2 0x246 JUMP JUMPDEST PUSH1 0x40 MLOAD SWAP1 ISZERO ISZERO DUP2 MSTORE PUSH1 0x20 ADD PUSH2 0xC6 JUMP JUMPDEST PUSH1 0x2 SLOAD JUMPDEST PUSH1 0x40 MLOAD SWAP1 DUP2 MSTORE PUSH1 0x20 ADD PUSH2 0xC6 JUMP JUMPDEST PUSH2 0xF7 PUSH2 0x127 CALLDATASIZE PUSH1 0x4 PUSH2 0x614 JUMP JUMPDEST PUSH2 0x25F JUMP JUMPDEST PUSH1 0x40 MLOAD PUSH1 0x12 DUP2 MSTORE PUSH1 0x20 ADD PUSH2 0xC6 JUMP JUMPDEST PUSH2 0x10B PUSH2 0x149 CALLDATASIZE PUSH1 0x4 PUSH2 0x64D JUMP JUMPDEST PUSH1 0x1 PUSH1 0x1 PUSH1 0xA0 SHL SUB AND PUSH0 SWAP1 DUP2 MSTORE PUSH1 0x20 DUP2 SWAP1 MSTORE PUSH1 0x40 SWAP1 KECCAK256 SLOAD SWAP1 JUMP JUMPDEST PUSH2 0xD7 PUSH2 0x282 JUMP JUMPDEST PUSH2 0xF7 PUSH2 0x179 CALLDATASIZE PUSH1 0x4 PUSH2 0x5EC JUMP JUMPDEST PUSH2 0x291 JUMP JUMPDEST PUSH2 0x10B PUSH2 0x18C CALLDATASIZE PUSH1 0x4 PUSH2 0x66D JUMP JUMPDEST PUSH1 0x1 PUSH1 0x1 PUSH1 0xA0 SHL SUB SWAP2 DUP3 AND PUSH0 SWAP1 DUP2 MSTORE PUSH1 0x1 PUSH1 0x20 SWAP1 DUP2 MSTORE PUSH1 0x40 DUP1 DUP4 KECCAK256 SWAP4 SWAP1 SWAP5 AND DUP3 MSTORE SWAP2 SWAP1 SWAP2 MSTORE KECCAK256 SLOAD SWAP1 JUMP JUMPDEST PUSH1 0x60 PUSH1 0x3 DUP1 SLOAD PUSH2 0x1C5 SWAP1 PUSH2 0x69E JUMP JUMPDEST DUP1 PUSH1 0x1F ADD PUSH1 0x20 DUP1 SWAP2 DIV MUL PUSH1 0x20 ADD PUSH1 0x40 MLOAD SWAP1 DUP2 ADD PUSH1 0x40 MSTORE DUP1 SWAP3 SWAP2 SWAP1 DUP2 DUP2 MSTORE PUSH1 0x20 ADD DUP3 DUP1 SLOAD PUSH2 0x1F1 SWAP1 PUSH2 0x69E JUMP JUMPDEST DUP1 ISZERO PUSH2 0x23C JUMPI DUP1 PUSH1 0x1F LT PUSH2 0x213 JUMPI PUSH2 0x100 DUP1 DUP4 SLOAD DIV MUL DUP4 MSTORE SWAP2 PUSH1 0x20 ADD SWAP2 PUSH2 0x23C JUMP JUMPDEST DUP3 ADD SWAP2 SWAP1 PUSH0 MSTORE PUSH1 0x20 PUSH0 KECCAK256 SWAP1 JUMPDEST DUP2 SLOAD DUP2 MSTORE SWAP1 PUSH1 0x1 ADD SWAP1 PUSH1 0x20 ADD DUP1 DUP4 GT PUSH2 0x21F JUMPI DUP3 SWAP1 SUB PUSH1 0x1F AND DUP3 ADD SWAP2 JUMPDEST POP POP POP POP POP SWAP1 POP SWAP1 JUMP JUMPDEST PUSH0 CALLER PUSH2 0x253 DUP2 DUP6 DUP6 PUSH2 0x29E JUMP JUMPDEST PUSH1 0x1 SWAP2 POP POP JUMPDEST SWAP3 SWAP2 POP POP JUMP JUMPDEST PUSH0 CALLER PUSH2 0x26C DUP6 DUP3 DUP6 PUSH2 0x2B0 JUMP JUMPDEST PUSH2 0x277 DUP6 DUP6 DUP6 PUSH2 0x331 JUMP JUMPDEST POP PUSH1 0x1 SWAP5 SWAP4 POP POP POP POP JUMP JUMPDEST PUSH1 0x60 PUSH1 0x4 DUP1 SLOAD PUSH2 0x1C5 SWAP1 PUSH2 0x69E JUMP JUMPDEST PUSH0 CALLER PUSH2 0x253 DUP2 DUP6 DUP6 PUSH2 0x331 JUMP JUMPDEST PUSH2 0x2AB DUP4 DUP4 DUP4 PUSH1 0x1 PUSH2 0x38E JUMP JUMPDEST POP POP POP JUMP JUMPDEST PUSH1 0x1 PUSH1 0x1 PUSH1 0xA0 SHL SUB DUP4 DUP2 AND PUSH0 SWAP1 DUP2 MSTORE PUSH1 0x1 PUSH1 0x20 SWAP1 DUP2 MSTORE PUSH1 0x40 DUP1 DUP4 KECCAK256 SWAP4 DUP7 AND DUP4 MSTORE SWAP3 SWAP1 MSTORE KECCAK256 SLOAD PUSH0 NOT DUP2 LT ISZERO PUSH2 0x32B JUMPI DUP2 DUP2 LT ISZERO PUSH2 0x31D JUMPI PUSH1 0x40 MLOAD PUSH4 0x7DC7A0D9 PUSH1 0xE1 SHL DUP2 MSTORE PUSH1 0x1 PUSH1 0x1 PUSH1 0xA0 SHL SUB DUP5 AND PUSH1 0x4 DUP3 ADD MSTORE PUSH1 0x24 DUP2 ADD DUP3 SWAP1 MSTORE PUSH1 0x44 DUP2 ADD DUP4 SWAP1 MSTORE PUSH1 0x64 ADD JUMPDEST PUSH1 0x40 MLOAD DUP1 SWAP2 SUB SWAP1 REVERT JUMPDEST PUSH2 0x32B DUP5 DUP5 DUP5 DUP5 SUB PUSH0 PUSH2 0x38E JUMP JUMPDEST POP POP POP POP JUMP JUMPDEST PUSH1 0x1 PUSH1 0x1 PUSH1 0xA0 SHL SUB DUP4 AND PUSH2 0x35A JUMPI PUSH1 0x40 MLOAD PUSH4 0x4B637E8F PUSH1 0xE1 SHL DUP2 MSTORE PUSH0 PUSH1 0x4 DUP3 ADD MSTORE PUSH1 0x24 ADD PUSH2 0x314 JUMP JUMPDEST PUSH1 0x1 PUSH1 0x1 PUSH1 0xA0 SHL SUB DUP3 AND PUSH2 0x383 JUMPI PUSH1 0x40 MLOAD PUSH4 0xEC442F05 PUSH1 0xE0 SHL DUP2 MSTORE PUSH0 PUSH1 0x4 DUP3 ADD MSTORE PUSH1 0x24 ADD PUSH2 0x314 JUMP JUMPDEST PUSH2 0x2AB DUP4 DUP4 DUP4 PUSH2 0x460 JUMP JUMPDEST PUSH1 0x1 PUSH1 0x1 PUSH1 0xA0 SHL SUB DUP5 AND PUSH2 0x3B7 JUMPI PUSH1 0x40 MLOAD PUSH4 0xE602DF05 PUSH1 0xE0 SHL DUP2 MSTORE PUSH0 PUSH1 0x4 DUP3 ADD MSTORE PUSH1 0x24 ADD PUSH2 0x314 JUMP JUMPDEST PUSH1 0x1 PUSH1 0x1 PUSH1 0xA0 SHL SUB DUP4 AND PUSH2 0x3E0 JUMPI PUSH1 0x40 MLOAD PUSH4 0x4A1406B1 PUSH1 0xE1 SHL DUP2 MSTORE PUSH0 PUSH1 0x4 DUP3 ADD MSTORE PUSH1 0x24 ADD PUSH2 0x314 JUMP JUMPDEST PUSH1 0x1 PUSH1 0x1 PUSH1 0xA0 SHL SUB DUP1 DUP6 AND PUSH0 SWAP1 DUP2 MSTORE PUSH1 0x1 PUSH1 0x20 SWAP1 DUP2 MSTORE PUSH1 0x40 DUP1 DUP4 KECCAK256 SWAP4 DUP8 AND DUP4 MSTORE SWAP3 SWAP1 MSTORE KECCAK256 DUP3 SWAP1 SSTORE DUP1 ISZERO PUSH2 0x32B JUMPI DUP3 PUSH1 0x1 PUSH1 0x1 PUSH1 0xA0 SHL SUB AND DUP5 PUSH1 0x1 PUSH1 0x1 PUSH1 0xA0 SHL SUB AND PUSH32 0x8C5BE1E5EBEC7D5BD14F71427D1E84F3DD0314C0F7B2291E5B200AC8C7C3B925 DUP5 PUSH1 0x40 MLOAD PUSH2 0x452 SWAP2 DUP2 MSTORE PUSH1 0x20 ADD SWAP1 JUMP JUMPDEST PUSH1 0x40 MLOAD DUP1 SWAP2 SUB SWAP1 LOG3 POP POP POP POP JUMP JUMPDEST PUSH1 0x1 PUSH1 0x1 PUSH1 0xA0 SHL SUB DUP4 AND PUSH2 0x48A JUMPI DUP1 PUSH1 0x2 PUSH0 DUP3 DUP3 SLOAD PUSH2 0x47F SWAP2 SWAP1 PUSH2 0x6D6 JUMP JUMPDEST SWAP1 SWAP2 SSTORE POP PUSH2 0x4FA SWAP1 POP JUMP JUMPDEST PUSH1 0x1 PUSH1 0x1 PUSH1 0xA0 SHL SUB DUP4 AND PUSH0 SWAP1 DUP2 MSTORE PUSH1 0x20 DUP2 SWAP1 MSTORE PUSH1 0x40 SWAP1 KECCAK256 SLOAD DUP2 DUP2 LT ISZERO PUSH2 0x4DC JUMPI PUSH1 0x40 MLOAD PUSH4 0x391434E3 PUSH1 0xE2 SHL DUP2 MSTORE PUSH1 0x1 PUSH1 0x1 PUSH1 0xA0 SHL SUB DUP6 AND PUSH1 0x4 DUP3 ADD MSTORE PUSH1 0x24 DUP2 ADD DUP3 SWAP1 MSTORE PUSH1 0x44 DUP2 ADD DUP4 SWAP1 MSTORE PUSH1 0x64 ADD PUSH2 0x314 JUMP JUMPDEST PUSH1 0x1 PUSH1 0x1 PUSH1 0xA0 SHL SUB DUP5 AND PUSH0 SWAP1 DUP2 MSTORE PUSH1 0x20 DUP2 SWAP1 MSTORE PUSH1 0x40 SWAP1 KECCAK256 SWAP1 DUP3 SWAP1 SUB SWAP1 SSTORE JUMPDEST PUSH1 0x1 PUSH1 0x1 PUSH1 0xA0 SHL SUB DUP3 AND PUSH2 0x516 JUMPI PUSH1 0x2 DUP1 SLOAD DUP3 SWAP1 SUB SWAP1 SSTORE PUSH2 0x534 JUMP JUMPDEST PUSH1 0x1 PUSH1 0x1 PUSH1 0xA0 SHL SUB DUP3 AND PUSH0 SWAP1 DUP2 MSTORE PUSH1 0x20 DUP2 SWAP1 MSTORE PUSH1 0x40 SWAP1 KECCAK256 DUP1 SLOAD DUP3 ADD SWAP1 SSTORE JUMPDEST DUP2 PUSH1 0x1 PUSH1 0x1 PUSH1 0xA0 SHL SUB AND DUP4 PUSH1 0x1 PUSH1 0x1 PUSH1 0xA0 SHL SUB AND PUSH32 0xDDF252AD1BE2C89B69C2B068FC378DAA952BA7F163C4A11628F55A4DF523B3EF DUP4 PUSH1 0x40 MLOAD PUSH2 0x579 SWAP2 DUP2 MSTORE PUSH1 0x20 ADD SWAP1 JUMP JUMPDEST PUSH1 0x40 MLOAD DUP1 SWAP2 SUB SWAP1 LOG3 POP POP POP JUMP JUMPDEST PUSH0 PUSH1 0x20 DUP1 DUP4 MSTORE DUP4 MLOAD DUP1 DUP3 DUP6 ADD MSTORE PUSH0 JUMPDEST DUP2 DUP2 LT ISZERO PUSH2 0x5B1 JUMPI DUP6 DUP2 ADD DUP4 ADD MLOAD DUP6 DUP3 ADD PUSH1 0x40 ADD MSTORE DUP3 ADD PUSH2 0x595 JUMP JUMPDEST POP PUSH0 PUSH1 0x40 DUP3 DUP7 ADD ADD MSTORE PUSH1 0x40 PUSH1 0x1F NOT PUSH1 0x1F DUP4 ADD AND DUP6 ADD ADD SWAP3 POP POP POP SWAP3 SWAP2 POP POP JUMP JUMPDEST DUP1 CALLDATALOAD PUSH1 0x1 PUSH1 0x1 PUSH1 0xA0 SHL SUB DUP2 AND DUP2 EQ PUSH2 0x5E7 JUMPI PUSH0 DUP1 REVERT JUMPDEST SWAP2 SWAP1 POP JUMP JUMPDEST PUSH0 DUP1 PUSH1 0x40 DUP4 DUP6 SUB SLT ISZERO PUSH2 0x5FD JUMPI PUSH0 DUP1 REVERT JUMPDEST PUSH2 0x606 DUP4 PUSH2 0x5D1 JUMP JUMPDEST SWAP5 PUSH1 0x20 SWAP4 SWAP1 SWAP4 ADD CALLDATALOAD SWAP4 POP POP POP JUMP JUMPDEST PUSH0 DUP1 PUSH0 PUSH1 0x60 DUP5 DUP7 SUB SLT ISZERO PUSH2 0x626 JUMPI PUSH0 DUP1 REVERT JUMPDEST PUSH2 0x62F DUP5 PUSH2 0x5D1 JUMP JUMPDEST SWAP3 POP PUSH2 0x63D PUSH1 0x20 DUP6 ADD PUSH2 0x5D1 JUMP JUMPDEST SWAP2 POP PUSH1 0x40 DUP5 ADD CALLDATALOAD SWAP1 POP SWAP3 POP SWAP3 POP SWAP3 JUMP JUMPDEST PUSH0 PUSH1 0x20 DUP3 DUP5 SUB SLT ISZERO PUSH2 0x65D JUMPI PUSH0 DUP1 REVERT JUMPDEST PUSH2 0x666 DUP3 PUSH2 0x5D1 JUMP JUMPDEST SWAP4 SWAP3 POP POP POP JUMP JUMPDEST PUSH0 DUP1 PUSH1 0x40 DUP4 DUP6 SUB SLT ISZERO PUSH2 0x67E JUMPI PUSH0 DUP1 REVERT JUMPDEST PUSH2 0x687 DUP4 PUSH2 0x5D1 JUMP JUMPDEST SWAP2 POP PUSH2 0x695 PUSH1 0x20 DUP5 ADD PUSH2 0x5D1 JUMP JUMPDEST SWAP1 POP SWAP3 POP SWAP3 SWAP1 POP JUMP JUMPDEST PUSH1 0x1 DUP2 DUP2 SHR SWAP1 DUP3 AND DUP1 PUSH2 0x6B2 JUMPI PUSH1 0x7F DUP3 AND SWAP2 POP JUMPDEST PUSH1 0x20 DUP3 LT DUP2 SUB PUSH2 0x6D0 JUMPI PUSH4 0x4E487B71 PUSH1 0xE0 SHL PUSH0 MSTORE PUSH1 0x22 PUSH1 0x4 MSTORE PUSH1 0x24 PUSH0 REVERT JUMPDEST POP SWAP2 SWAP1 POP JUMP JUMPDEST DUP1 DUP3 ADD DUP1 DUP3 GT ISZERO PUSH2 0x259 JUMPI PUSH4 0x4E487B71 PUSH1 0xE0 SHL PUSH0 MSTORE PUSH1 0x11 PUSH1 0x4 MSTORE PUSH1 0x24 PUSH0 REVERT INVALID LOG2 PUSH5 0x6970667358 0x22 SLT KECCAK256 SWAP3 0x24 DUP13 PUSH20 0xDF06E3FE9650A2CB6999DC28B75A635C3D3928F3 0xB7 DUP10 CODESIZE PUSH1 0xA 0xC2 0x5E SIGNEXTEND PUSH5 0x736F6C6343 STOP ADDMOD EQ STOP CALLER LOG2 PUSH5 0x6970667358 0x22 SLT KECCAK256 0xB4 CREATE2 RETURNDATACOPY CALL SLOAD 0xA6 SWAP9 0xB3 SDIV SUB PUSH28 0x6959DB6AD0A5A9247E60D0864EFCA8BB74CCC5122564736F6C634300 ADDMOD EQ STOP CALLER "},"methodIdentifiers":{"FEE_DENOMINATOR()":"d73792a9","GRADUATION_THRESHOLD()":"fcfc0c09","INITIAL_VIRTUAL_ETH()":"45b18f25","INITIAL_VIRTUAL_TOKEN()":"e829ff62","allTokens(uint256)":"634282af","buy(address,uint256)":"cce7ec13","createToken(string,string,string)":"94aed7d0","feeRate()":"978bbdb9","owner()":"8da5cb5b","renounceOwnership()":"715018a6","sell(address,uint256,uint256)":"6a272462","setFeeRate(uint256)":"45596e2e","tokenStates(address)":"89cb096a","transferOwnership(address)":"f2fde38b","uniswapFactory()":"8bdb2afa","uniswapRouter()":"735de9f7","withdrawFees()":"476343ee"}}}}}