{
  "_format": "hh3-artifact-1",
  "contractName": "Launchpad",
  "sourceName": "src/Launchpad.sol",
  "abi": [
    {
      "inputs": [
        {
          "internalType": "address",
          "name": "_uniswapRouter",
          "type": "address"
        },
        {
          "internalType": "address",
          "name": "_uniswapFactory",
          "type": "address"
        }
      ],
      "stateMutability": "nonpayable",
      "type": "constructor"
    },
    {
      "inputs": [
        {
          "internalType": "address",
          "name": "owner",
          "type": "address"
        }
      ],
      "name": "OwnableInvalidOwner",
      "type": "error"
    },
    {
      "inputs": [
        {
          "internalType": "address",
          "name": "account",
          "type": "address"
        }
      ],
      "name": "OwnableUnauthorizedAccount",
      "type": "error"
    },
    {
      "anonymous": false,
      "inputs": [
        {
          "indexed": true,
          "internalType": "address",
          "name": "token",
          "type": "address"
        },
        {
          "indexed": false,
          "internalType": "address",
          "name": "pair",
          "type": "address"
        },
        {
          "indexed": false,
          "internalType": "uint256",
          "name": "ethAmount",
          "type": "uint256"
        },
        {
          "indexed": false,
          "internalType": "uint256",
          "name": "tokenAmount",
          "type": "uint256"
        }
      ],
      "name": "Graduated",
      "type": "event"
    },
    {
      "anonymous": false,
      "inputs": [
        {
          "indexed": true,
          "internalType": "address",
          "name": "previousOwner",
          "type": "address"
        },
        {
          "indexed": true,
          "internalType": "address",
          "name": "newOwner",
          "type": "address"
        }
      ],
      "name": "OwnershipTransferred",
      "type": "event"
    },
    {
      "anonymous": false,
      "inputs": [
        {
          "indexed": true,
          "internalType": "address",
          "name": "tokenAddress",
          "type": "address"
        },
        {
          "indexed": false,
          "internalType": "string",
          "name": "name",
          "type": "string"
        },
        {
          "indexed": false,
          "internalType": "string",
          "name": "symbol",
          "type": "string"
        },
        {
          "indexed": false,
          "internalType": "string",
          "name": "uri",
          "type": "string"
        }
      ],
      "name": "TokenCreated",
      "type": "event"
    },
    {
      "anonymous": false,
      "inputs": [
        {
          "indexed": true,
          "internalType": "address",
          "name": "token",
          "type": "address"
        },
        {
          "indexed": true,
          "internalType": "address",
          "name": "user",
          "type": "address"
        },
        {
          "indexed": false,
          "internalType": "uint256",
          "name": "ethAmount",
          "type": "uint256"
        },
        {
          "indexed": false,
          "internalType": "uint256",
          "name": "tokenAmount",
          "type": "uint256"
        },
        {
          "indexed": false,
          "internalType": "bool",
          "name": "isBuy",
          "type": "bool"
        }
      ],
      "name": "Trade",
      "type": "event"
    },
    {
      "inputs": [],
      "name": "FEE_DENOMINATOR",
      "outputs": [
        {
          "internalType": "uint256",
          "name": "",
          "type": "uint256"
        }
      ],
      "stateMutability": "view",
      "type": "function"
    },
    {
      "inputs": [],
      "name": "GRADUATION_THRESHOLD",
      "outputs": [
        {
          "internalType": "uint256",
          "name": "",
          "type": "uint256"
        }
      ],
      "stateMutability": "view",
      "type": "function"
    },
    {
      "inputs": [],
      "name": "INITIAL_VIRTUAL_ETH",
      "outputs": [
        {
          "internalType": "uint256",
          "name": "",
          "type": "uint256"
        }
      ],
      "stateMutability": "view",
      "type": "function"
    },
    {
      "inputs": [],
      "name": "INITIAL_VIRTUAL_TOKEN",
      "outputs": [
        {
          "internalType": "uint256",
          "name": "",
          "type": "uint256"
        }
      ],
      "stateMutability": "view",
      "type": "function"
    },
    {
      "inputs": [
        {
          "internalType": "uint256",
          "name": "",
          "type": "uint256"
        }
      ],
      "name": "allTokens",
      "outputs": [
        {
          "internalType": "address",
          "name": "",
          "type": "address"
        }
      ],
      "stateMutability": "view",
      "type": "function"
    },
    {
      "inputs": [
        {
          "internalType": "address",
          "name": "token",
          "type": "address"
        },
        {
          "internalType": "uint256",
          "name": "minTokensOut",
          "type": "uint256"
        }
      ],
      "name": "buy",
      "outputs": [],
      "stateMutability": "payable",
      "type": "function"
    },
    {
      "inputs": [
        {
          "internalType": "string",
          "name": "name",
          "type": "string"
        },
        {
          "internalType": "string",
          "name": "symbol",
          "type": "string"
        },
        {
          "internalType": "string",
          "name": "uri",
          "type": "string"
        }
      ],
      "name": "createToken",
      "outputs": [
        {
          "internalType": "address",
          "name": "",
          "type": "address"
        }
      ],
      "stateMutability": "nonpayable",
      "type": "function"
    },
    {
      "inputs": [],
      "name": "feeRate",
      "outputs": [
        {
          "internalType": "uint256",
          "name": "",
          "type": "uint256"
        }
      ],
      "stateMutability": "view",
      "type": "function"
    },
    {
      "inputs": [],
      "name": "owner",
      "outputs": [
        {
          "internalType": "address",
          "name": "",
          "type": "address"
        }
      ],
      "stateMutability": "view",
      "type": "function"
    },
    {
      "inputs": [],
      "name": "renounceOwnership",
      "outputs": [],
      "stateMutability": "nonpayable",
      "type": "function"
    },
    {
      "inputs": [
        {
          "internalType": "address",
          "name": "token",
          "type": "address"
        },
        {
          "internalType": "uint256",
          "name": "tokenAmount",
          "type": "uint256"
        },
        {
          "internalType": "uint256",
          "name": "minEthOut",
          "type": "uint256"
        }
      ],
      "name": "sell",
      "outputs": [],
      "stateMutability": "nonpayable",
      "type": "function"
    },
    {
      "inputs": [
        {
          "internalType": "uint256",
          "name": "_rate",
          "type": "uint256"
        }
      ],
      "name": "setFeeRate",
      "outputs": [],
      "stateMutability": "nonpayable",
      "type": "function"
    },
    {
      "inputs": [
        {
          "internalType": "address",
          "name": "",
          "type": "address"
        }
      ],
      "name": "tokenStates",
      "outputs": [
        {
          "internalType": "address",
          "name": "tokenAddress",
          "type": "address"
        },
        {
          "internalType": "uint256",
          "name": "virtualEthReserve",
          "type": "uint256"
        },
        {
          "internalType": "uint256",
          "name": "virtualTokenReserve",
          "type": "uint256"
        },
        {
          "internalType": "uint256",
          "name": "realEthReserve",
          "type": "uint256"
        },
        {
          "internalType": "bool",
          "name": "graduated",
          "type": "bool"
        }
      ],
      "stateMutability": "view",
      "type": "function"
    },
    {
      "inputs": [
        {
          "internalType": "address",
          "name": "newOwner",
          "type": "address"
        }
      ],
      "name": "transferOwnership",
      "outputs": [],
      "stateMutability": "nonpayable",
      "type": "function"
    },
    {
      "inputs": [],
      "name": "uniswapFactory",
      "outputs": [
        {
          "internalType": "address",
          "name": "",
          "type": "address"
        }
      ],
      "stateMutability": "view",
      "type": "function"
    },
    {
      "inputs": [],
      "name": "uniswapRouter",
      "outputs": [
        {
          "internalType": "address",
          "name": "",
          "type": "address"
        }
      ],
      "stateMutability": "view",
      "type": "function"
    },
    {
      "inputs": [],
      "name": "withdrawFees",
      "outputs": [],
      "stateMutability": "nonpayable",
      "type": "function"
    }
  ],
  "bytecode": "0x6080604052606460015534801562000015575f80fd5b506040516200213738038062002137833981016040819052620000389162000107565b33806200005e57604051631e4fbdf760e01b81525f600482015260240160405180910390fd5b62000069816200009c565b50600280546001600160a01b039384166001600160a01b031991821617909155600380549290931691161790556200013d565b5f80546001600160a01b038381166001600160a01b0319831681178455604051919092169283917f8be0079c531659141344cd1fd0a4f28419497f9722a3daafe3b4186f6b6457e09190a35050565b80516001600160a01b038116811462000102575f80fd5b919050565b5f806040838503121562000119575f80fd5b6200012483620000eb565b91506200013460208401620000eb565b90509250929050565b611fec806200014b5f395ff3fe6080604052600436106200010f575f3560e01c80638bdb2afa116200009e578063cce7ec13116200006a578063cce7ec131462000322578063d73792a91462000339578063e829ff621462000350578063f2fde38b1462000371578063fcfc0c091462000395575f80fd5b80638bdb2afa14620002a85780638da5cb5b14620002c957806394aed7d014620002e7578063978bbdb9146200030b575f80fd5b80636a27246211620000de5780636a27246214620001bd578063715018a614620001e1578063735de9f714620001f857806389cb096a1462000219575f80fd5b806345596e2e146200011357806345b18f251462000139578063476343ee1462000169578063634282af1462000180575b5f80fd5b3480156200011f575f80fd5b50620001376200013136600462000ff0565b620003b3565b005b34801562000145575f80fd5b5062000156670de0b6b3a764000081565b6040519081526020015b60405180910390f35b34801562000175575f80fd5b506200013762000407565b3480156200018c575f80fd5b50620001a46200019e36600462000ff0565b62000512565b6040516001600160a01b03909116815260200162000160565b348015620001c9575f80fd5b5062000137620001db36600462001024565b6200053b565b348015620001ed575f80fd5b5062000137620008dd565b34801562000204575f80fd5b50600254620001a4906001600160a01b031681565b34801562000225575f80fd5b50620002736200023736600462001057565b600460208190525f9182526040909120805460018201546002830154600384015493909401546001600160a01b03909216939092909160ff1685565b604080516001600160a01b03909616865260208601949094529284019190915260608301521515608082015260a00162000160565b348015620002b4575f80fd5b50600354620001a4906001600160a01b031681565b348015620002d5575f80fd5b505f546001600160a01b0316620001a4565b348015620002f3575f80fd5b50620001a4620003053660046200111f565b620008f4565b34801562000317575f80fd5b506200015660015481565b6200013762000333366004620011ab565b62000a5b565b34801562000345575f80fd5b506200015661271081565b3480156200035c575f80fd5b50620001566b033b2e3c9fd0803ce800000081565b3480156200037d575f80fd5b50620001376200038f36600462001057565b62000d2e565b348015620003a1575f80fd5b506200015668014d1120d7b160000081565b620003bd62000d71565b6101f4811115620004025760405162461bcd60e51b815260206004820152600a6024820152694d61782066656520352560b01b60448201526064015b60405180910390fd5b600155565b6200041162000d71565b475f5b600554811015620004825760045f60058381548110620004385762000438620011d6565b5f9182526020808320909101546001600160a01b031683528201929092526040019020600301546200046b9083620011fe565b91508062000479816200121a565b91505062000414565b506040515f90339083908381818185875af1925050503d805f8114620004c4576040519150601f19603f3d011682016040523d82523d5f602084013e620004c9565b606091505b50509050806200050e5760405162461bcd60e51b815260206004820152600f60248201526e15da5d1a191c985dc819985a5b1959608a1b6044820152606401620003f9565b5050565b6005818154811062000522575f80fd5b5f918252602090912001546001600160a01b0316905081565b6001600160a01b038084165f9081526004602052604090208054909116620005985760405162461bcd60e51b815260206004820152600f60248201526e151bdad95b881b9bdd08199bdd5b99608a1b6044820152606401620003f9565b600481015460ff1615620005e35760405162461bcd60e51b8152602060048201526011602482015270105b1c9958591e4819dc98591d585d1959607a1b6044820152606401620003f9565b5f8311620006275760405162461bcd60e51b815260206004820152601060248201526f4d7573742073656c6c20746f6b656e7360801b6044820152606401620003f9565b6040516323b872dd60e01b8152336004820152306024820152604481018490526001600160a01b038516906323b872dd906064016020604051808303815f875af115801562000678573d5f803e3d5ffd5b505050506040513d601f19601f820116820180604052508101906200069e919062001235565b505f81600201548260010154620006b6919062001256565b90505f848360020154620006cb919062001270565b90505f620006da828462001286565b90505f818560010154620006ef9190620011fe565b90505f6127106001548362000705919062001256565b62000711919062001286565b90505f620007208284620011fe565b905087811015620007745760405162461bcd60e51b815260206004820152601b60248201527f536c69707061676520746f6c6572616e636520657863656564656400000000006044820152606401620003f9565b8287600301541015620007ca5760405162461bcd60e51b815260206004820152601f60248201527f496e73756666696369656e74207265616c20455448206c6971756964697479006044820152606401620003f9565b60018701849055600287018590556003870180548491905f90620007f0908490620011fe565b90915550506040515f90339083908381818185875af1925050503d805f811462000836576040519150601f19603f3d011682016040523d82523d5f602084013e6200083b565b606091505b5050905080620008845760405162461bcd60e51b8152602060048201526013602482015272115512081d1c985b9cd9995c8819985a5b1959606a1b6044820152606401620003f9565b60408051838152602081018c90525f81830152905133916001600160a01b038e16917f84d137fc8cf4dd48db72f6856694d133b26c0cfd241162521c3af00260e061ae9181900360600190a35050505050505050505050565b620008e762000d71565b620008f25f62000d9f565b565b5f8084846b033b2e3c9fd0803ce800000030604051620009149062000fe2565b620009239493929190620012eb565b604051809103905ff0801580156200093d573d5f803e3d5ffd5b506040805160a0810182526001600160a01b03808416808352670de0b6b3a764000060208085019182526b033b2e3c9fd0803ce80000008587019081525f60608701818152608088018281528683526004948590528983209851895498166001600160a01b0319988916178955945160018981019190915592516002890155516003880155925195909101805495151560ff199096169590951790945560058054948501815590527f036b6384b5eca791c62761152d0c79bb0604c104a5fb6f4eb0703f3154bb3db09092018054909116821790559051919250907f10d72033834a2a8a099dfa90492346be3414c081b6e5155dbbc2093cfb0dbf099062000a4b9088908890889062001335565b60405180910390a2949350505050565b6001600160a01b038083165f908152600460205260409020805490911662000ab85760405162461bcd60e51b815260206004820152600f60248201526e151bdad95b881b9bdd08199bdd5b99608a1b6044820152606401620003f9565b600481015460ff161562000b035760405162461bcd60e51b8152602060048201526011602482015270105b1c9958591e4819dc98591d585d1959607a1b6044820152606401620003f9565b5f341162000b445760405162461bcd60e51b815260206004820152600d60248201526c09aeae6e840e6cadcc8408aa89609b1b6044820152606401620003f9565b5f6127106001543462000b58919062001256565b62000b64919062001286565b90505f62000b738234620011fe565b90505f8360020154846001015462000b8c919062001256565b90505f82856001015462000ba1919062001270565b90505f62000bb0828462001286565b90505f81876002015462000bc59190620011fe565b90508781101562000c195760405162461bcd60e51b815260206004820152601b60248201527f536c69707061676520746f6c6572616e636520657863656564656400000000006044820152606401620003f9565b60018701839055600287018290556003870180548691905f9062000c3f90849062001270565b909155505060405163a9059cbb60e01b8152336004820152602481018290526001600160a01b038a169063a9059cbb906044016020604051808303815f875af115801562000c8f573d5f803e3d5ffd5b505050506040513d601f19601f8201168201806040525081019062000cb5919062001235565b506040805134815260208101839052600181830152905133916001600160a01b038c16917f84d137fc8cf4dd48db72f6856694d133b26c0cfd241162521c3af00260e061ae9181900360600190a368014d1120d7b160000087600301541062000d235762000d238962000dee565b505050505050505050565b62000d3862000d71565b6001600160a01b03811662000d6357604051631e4fbdf760e01b81525f6004820152602401620003f9565b62000d6e8162000d9f565b50565b5f546001600160a01b03163314620008f25760405163118cdaa760e01b8152336004820152602401620003f9565b5f80546001600160a01b038381166001600160a01b0319831681178455604051919092169283917f8be0079c531659141344cd1fd0a4f28419497f9722a3daafe3b4186f6b6457e09190a35050565b6001600160a01b0381165f818152600460208190526040808320808301805460ff19166001179055600381015491516370a0823160e01b81523093810193909352939092916370a0823190602401602060405180830381865afa15801562000e58573d5f803e3d5ffd5b505050506040513d601f19601f8201168201806040525081019062000e7e91906200137d565b60025460405163095ea7b360e01b81526001600160a01b0391821660048201526024810183905291925085169063095ea7b3906044016020604051808303815f875af115801562000ed1573d5f803e3d5ffd5b505050506040513d601f19601f8201168201806040525081019062000ef7919062001235565b5060025460405163f305d71960e01b81526001600160a01b038681166004830152602482018490525f60448301819052606483015261dead60848301524260a48301529091169063f305d71990849060c40160606040518083038185885af115801562000f66573d5f803e3d5ffd5b50505050506040513d601f19601f8201168201806040525081019062000f8d919062001395565b5050604080515f8152602081018590529081018390526001600160a01b03861691507f18a56450d3c666e2bae9e0829fcada82a9ab0deef6e33c2496752c88d4155c9d9060600160405180910390a250505050565b610bf580620013c283390190565b5f6020828403121562001001575f80fd5b5035919050565b80356001600160a01b03811681146200101f575f80fd5b919050565b5f805f6060848603121562001037575f80fd5b620010428462001008565b95602085013595506040909401359392505050565b5f6020828403121562001068575f80fd5b620010738262001008565b9392505050565b634e487b7160e01b5f52604160045260245ffd5b5f82601f8301126200109e575f80fd5b813567ffffffffffffffff80821115620010bc57620010bc6200107a565b604051601f8301601f19908116603f01168101908282118183101715620010e757620010e76200107a565b8160405283815286602085880101111562001100575f80fd5b836020870160208301375f602085830101528094505050505092915050565b5f805f6060848603121562001132575f80fd5b833567ffffffffffffffff808211156200114a575f80fd5b62001158878388016200108e565b945060208601359150808211156200116e575f80fd5b6200117c878388016200108e565b9350604086013591508082111562001192575f80fd5b50620011a1868287016200108e565b9150509250925092565b5f8060408385031215620011bd575f80fd5b620011c88362001008565b946020939093013593505050565b634e487b7160e01b5f52603260045260245ffd5b634e487b7160e01b5f52601160045260245ffd5b81810381811115620012145762001214620011ea565b92915050565b5f600182016200122e576200122e620011ea565b5060010190565b5f6020828403121562001246575f80fd5b8151801515811462001073575f80fd5b8082028115828204841417620012145762001214620011ea565b80820180821115620012145762001214620011ea565b5f82620012a157634e487b7160e01b5f52601260045260245ffd5b500490565b5f81518084525f5b81811015620012cc57602081850181015186830182015201620012ae565b505f602082860101526020601f19601f83011685010191505092915050565b608081525f620012ff6080830187620012a6565b8281036020840152620013138187620012a6565b604084019590955250506001600160a01b039190911660609091015292915050565b606081525f620013496060830186620012a6565b82810360208401526200135d8186620012a6565b90508281036040840152620013738185620012a6565b9695505050505050565b5f602082840312156200138e575f80fd5b5051919050565b5f805f60608486031215620013a8575f80fd5b835192506020840151915060408401519050925092509256fe608060405234801562000010575f80fd5b5060405162000bf538038062000bf58339810160408190526200003391620002b3565b83836003620000438382620003ce565b506004620000528282620003ce565b5050600580546001600160a01b0319166001600160a01b038416179055506200007c818362000086565b50505050620004bc565b6001600160a01b038216620000b55760405163ec442f0560e01b81525f60048201526024015b60405180910390fd5b620000c25f8383620000c6565b5050565b6001600160a01b038316620000f4578060025f828254620000e8919062000496565b90915550620001669050565b6001600160a01b0383165f9081526020819052604090205481811015620001485760405163391434e360e21b81526001600160a01b03851660048201526024810182905260448101839052606401620000ac565b6001600160a01b0384165f9081526020819052604090209082900390555b6001600160a01b0382166200018457600280548290039055620001a2565b6001600160a01b0382165f9081526020819052604090208054820190555b816001600160a01b0316836001600160a01b03167fddf252ad1be2c89b69c2b068fc378daa952ba7f163c4a11628f55a4df523b3ef83604051620001e891815260200190565b60405180910390a3505050565b634e487b7160e01b5f52604160045260245ffd5b5f82601f83011262000219575f80fd5b81516001600160401b0380821115620002365762000236620001f5565b604051601f8301601f19908116603f01168101908282118183101715620002615762000261620001f5565b816040528381526020925086838588010111156200027d575f80fd5b5f91505b83821015620002a0578582018301518183018401529082019062000281565b5f93810190920192909252949350505050565b5f805f8060808587031215620002c7575f80fd5b84516001600160401b0380821115620002de575f80fd5b620002ec8883890162000209565b9550602087015191508082111562000302575f80fd5b50620003118782880162000209565b60408701516060880151919550935090506001600160a01b038116811462000337575f80fd5b939692955090935050565b600181811c908216806200035757607f821691505b6020821081036200037657634e487b7160e01b5f52602260045260245ffd5b50919050565b601f821115620003c9575f81815260208120601f850160051c81016020861015620003a45750805b601f850160051c820191505b81811015620003c557828155600101620003b0565b5050505b505050565b81516001600160401b03811115620003ea57620003ea620001f5565b6200040281620003fb845462000342565b846200037c565b602080601f83116001811462000438575f8415620004205750858301515b5f19600386901b1c1916600185901b178555620003c5565b5f85815260208120601f198616915b82811015620004685788860151825594840194600190910190840162000447565b50858210156200048657878501515f19600388901b60f8161c191681555b5050505050600190811b01905550565b80820180821115620004b657634e487b7160e01b5f52601160045260245ffd5b92915050565b61072b80620004ca5f395ff3fe608060405234801561000f575f80fd5b506004361061009b575f3560e01c8063313ce56711610063578063313ce5671461012c57806370a082311461013b57806395d89b4114610163578063a9059cbb1461016b578063dd62ed3e1461017e575f80fd5b806302669b521461009f57806306fdde03146100cf578063095ea7b3146100e457806318160ddd1461010757806323b872dd14610119575b5f80fd5b6005546100b2906001600160a01b031681565b6040516001600160a01b0390911681526020015b60405180910390f35b6100d76101b6565b6040516100c69190610586565b6100f76100f23660046105ec565b610246565b60405190151581526020016100c6565b6002545b6040519081526020016100c6565b6100f7610127366004610614565b61025f565b604051601281526020016100c6565b61010b61014936600461064d565b6001600160a01b03165f9081526020819052604090205490565b6100d7610282565b6100f76101793660046105ec565b610291565b61010b61018c36600461066d565b6001600160a01b039182165f90815260016020908152604080832093909416825291909152205490565b6060600380546101c59061069e565b80601f01602080910402602001604051908101604052809291908181526020018280546101f19061069e565b801561023c5780601f106102135761010080835404028352916020019161023c565b820191905f5260205f20905b81548152906001019060200180831161021f57829003601f168201915b5050505050905090565b5f3361025381858561029e565b60019150505b92915050565b5f3361026c8582856102b0565b610277858585610331565b506001949350505050565b6060600480546101c59061069e565b5f33610253818585610331565b6102ab838383600161038e565b505050565b6001600160a01b038381165f908152600160209081526040808320938616835292905220545f1981101561032b578181101561031d57604051637dc7a0d960e11b81526001600160a01b038416600482015260248101829052604481018390526064015b60405180910390fd5b61032b84848484035f61038e565b50505050565b6001600160a01b03831661035a57604051634b637e8f60e11b81525f6004820152602401610314565b6001600160a01b0382166103835760405163ec442f0560e01b81525f6004820152602401610314565b6102ab838383610460565b6001600160a01b0384166103b75760405163e602df0560e01b81525f6004820152602401610314565b6001600160a01b0383166103e057604051634a1406b160e11b81525f6004820152602401610314565b6001600160a01b038085165f908152600160209081526040808320938716835292905220829055801561032b57826001600160a01b0316846001600160a01b03167f8c5be1e5ebec7d5bd14f71427d1e84f3dd0314c0f7b2291e5b200ac8c7c3b9258460405161045291815260200190565b60405180910390a350505050565b6001600160a01b03831661048a578060025f82825461047f91906106d6565b909155506104fa9050565b6001600160a01b0383165f90815260208190526040902054818110156104dc5760405163391434e360e21b81526001600160a01b03851660048201526024810182905260448101839052606401610314565b6001600160a01b0384165f9081526020819052604090209082900390555b6001600160a01b03821661051657600280548290039055610534565b6001600160a01b0382165f9081526020819052604090208054820190555b816001600160a01b0316836001600160a01b03167fddf252ad1be2c89b69c2b068fc378daa952ba7f163c4a11628f55a4df523b3ef8360405161057991815260200190565b60405180910390a3505050565b5f6020808352835180828501525f5b818110156105b157858101830151858201604001528201610595565b505f604082860101526040601f19601f8301168501019250505092915050565b80356001600160a01b03811681146105e7575f80fd5b919050565b5f80604083850312156105fd575f80fd5b610606836105d1565b946020939093013593505050565b5f805f60608486031215610626575f80fd5b61062f846105d1565b925061063d602085016105d1565b9150604084013590509250925092565b5f6020828403121561065d575f80fd5b610666826105d1565b9392505050565b5f806040838503121561067e575f80fd5b610687836105d1565b9150610695602084016105d1565b90509250929050565b600181811c908216806106b257607f821691505b6020821081036106d057634e487b7160e01b5f52602260045260245ffd5b50919050565b8082018082111561025957634e487b7160e01b5f52601160045260245ffdfea264697066735822122092248c73df06e3fe9650a2cb6999dc28b75a635c3d3928f3b78938600ac25e0b64736f6c63430008140033a2646970667358221220b4f53ef154a698b305037b6959db6ad0a5a9247e60d0864efca8bb74ccc5122564736f6c63430008140033",
  "linkReferences": {},
  "deployedLinkReferences": {},
  "immutableReferences": {},
  "inputSourceName": "project/src/Launchpad.sol",
  "buildInfoId": "solc-0_8_20-d0ac6e4bf0bfdb96dda3d815570a41c8e2375477"
}